{
  "contractName": "OpenSquaring",
  "abi": [
    {
      "inputs": [
        {
          "internalType": "bytes",
          "name": "g",
          "type": "bytes"
        },
        {
          "internalType": "bytes",
          "name": "pi",
          "type": "bytes"
        },
        {
          "internalType": "bytes",
          "name": "y",
          "type": "bytes"
        },
        {
          "internalType": "bytes",
          "name": "q",
          "type": "bytes"
        },
        {
          "internalType": "bytes",
          "name": "dst",
          "type": "bytes"
        },
        {
          "internalType": "uint256",
          "name": "nonce",
          "type": "uint256"
        },
        {
          "internalType": "uint256",
          "name": "delay",
          "type": "uint256"
        }
      ],
      "name": "verify",
      "outputs": [
        {
          "internalType": "bool",
          "name": "",
          "type": "bool"
        }
      ],
      "stateMutability": "view",
      "type": "function",
      "constant": true
    },
    {
      "inputs": [
        {
          "internalType": "uint256",
          "name": "solve_time",
          "type": "uint256"
        },
        {
          "internalType": "uint256",
          "name": "complaint_time",
          "type": "uint256"
        },
        {
          "internalType": "uint256",
          "name": "asking_time",
          "type": "uint256"
        },
        {
          "internalType": "uint256",
          "name": "refund_time",
          "type": "uint256"
        },
        {
          "internalType": "uint256",
          "name": "k",
          "type": "uint256"
        },
        {
          "internalType": "uint256",
          "name": "p",
          "type": "uint256"
        },
        {
          "internalType": "uint256",
          "name": "solution_collateral",
          "type": "uint256"
        }
      ],
      "name": "NewRequest_p1",
      "outputs": [],
      "stateMutability": "payable",
      "type": "function",
      "payable": true
    },
    {
      "inputs": [
        {
          "internalType": "bytes",
          "name": "g",
          "type": "bytes"
        },
        {
          "internalType": "uint256",
          "name": "T",
          "type": "uint256"
        },
        {
          "internalType": "uint256",
          "name": "req_id",
          "type": "uint256"
        }
      ],
      "name": "NewRequest_p2",
      "outputs": [],
      "stateMutability": "payable",
      "type": "function",
      "payable": true
    },
    {
      "inputs": [
        {
          "internalType": "uint256",
          "name": "req_id",
          "type": "uint256"
        },
        {
          "internalType": "bytes32",
          "name": "asking_price_hash",
          "type": "bytes32"
        },
        {
          "internalType": "uint256",
          "name": "ell",
          "type": "uint256"
        },
        {
          "internalType": "uint256",
          "name": "nonce",
          "type": "uint256"
        },
        {
          "internalType": "bytes",
          "name": "pi1",
          "type": "bytes"
        },
        {
          "internalType": "bytes",
          "name": "pi2",
          "type": "bytes"
        },
        {
          "internalType": "bytes",
          "name": "y1",
          "type": "bytes"
        },
        {
          "internalType": "bytes",
          "name": "y2",
          "type": "bytes"
        },
        {
          "internalType": "bytes",
          "name": "q1",
          "type": "bytes"
        },
        {
          "internalType": "bytes",
          "name": "q2",
          "type": "bytes"
        }
      ],
      "name": "SubmitSolution",
      "outputs": [],
      "stateMutability": "payable",
      "type": "function",
      "payable": true
    },
    {
      "inputs": [
        {
          "internalType": "uint256",
          "name": "req_id",
          "type": "uint256"
        }
      ],
      "name": "getTime",
      "outputs": [
        {
          "internalType": "uint256",
          "name": "v1",
          "type": "uint256"
        },
        {
          "internalType": "uint256",
          "name": "v2",
          "type": "uint256"
        },
        {
          "internalType": "uint256",
          "name": "v3",
          "type": "uint256"
        },
        {
          "internalType": "uint256",
          "name": "v4",
          "type": "uint256"
        }
      ],
      "stateMutability": "view",
      "type": "function",
      "constant": true
    },
    {
      "inputs": [
        {
          "internalType": "uint256",
          "name": "req_id",
          "type": "uint256"
        },
        {
          "internalType": "uint256",
          "name": "asking_price",
          "type": "uint256"
        },
        {
          "internalType": "uint256",
          "name": "nonce",
          "type": "uint256"
        }
      ],
      "name": "Ask",
      "outputs": [],
      "stateMutability": "nonpayable",
      "type": "function"
    },
    {
      "inputs": [
        {
          "internalType": "bytes",
          "name": "y1",
          "type": "bytes"
        },
        {
          "internalType": "bytes",
          "name": "y2",
          "type": "bytes"
        }
      ],
      "name": "view_intermediate_hash1",
      "outputs": [
        {
          "internalType": "bytes32",
          "name": "",
          "type": "bytes32"
        }
      ],
      "stateMutability": "pure",
      "type": "function",
      "constant": true
    },
    {
      "inputs": [
        {
          "internalType": "bytes",
          "name": "y",
          "type": "bytes"
        },
        {
          "internalType": "bytes",
          "name": "pi",
          "type": "bytes"
        },
        {
          "internalType": "bytes",
          "name": "q",
          "type": "bytes"
        }
      ],
      "name": "view_intermediate_hash2_3",
      "outputs": [
        {
          "internalType": "bytes32",
          "name": "",
          "type": "bytes32"
        }
      ],
      "stateMutability": "pure",
      "type": "function",
      "constant": true
    },
    {
      "inputs": [
        {
          "internalType": "uint256",
          "name": "req_id",
          "type": "uint256"
        },
        {
          "internalType": "uint256",
          "name": "open_id",
          "type": "uint256"
        }
      ],
      "name": "Claim",
      "outputs": [],
      "stateMutability": "nonpayable",
      "type": "function"
    },
    {
      "inputs": [
        {
          "internalType": "uint256",
          "name": "req_id",
          "type": "uint256"
        }
      ],
      "name": "Refund",
      "outputs": [],
      "stateMutability": "nonpayable",
      "type": "function"
    },
    {
      "inputs": [
        {
          "internalType": "uint256",
          "name": "req_id",
          "type": "uint256"
        },
        {
          "internalType": "bytes32",
          "name": "hash2",
          "type": "bytes32"
        },
        {
          "internalType": "bytes32",
          "name": "hash3",
          "type": "bytes32"
        },
        {
          "internalType": "bytes",
          "name": "y1",
          "type": "bytes"
        },
        {
          "internalType": "bytes",
          "name": "y2",
          "type": "bytes"
        },
        {
          "internalType": "address",
          "name": "addr_bad",
          "type": "address"
        }
      ],
      "name": "Complaint_ell",
      "outputs": [],
      "stateMutability": "nonpayable",
      "type": "function"
    },
    {
      "inputs": [
        {
          "internalType": "uint256",
          "name": "req_id",
          "type": "uint256"
        },
        {
          "internalType": "address",
          "name": "addr_bad",
          "type": "address"
        }
      ],
      "name": "Complaint_ell_not_prime",
      "outputs": [],
      "stateMutability": "nonpayable",
      "type": "function"
    },
    {
      "inputs": [
        {
          "internalType": "uint256",
          "name": "req_id",
          "type": "uint256"
        },
        {
          "internalType": "bytes32",
          "name": "hash1",
          "type": "bytes32"
        },
        {
          "internalType": "bytes32",
          "name": "hash3",
          "type": "bytes32"
        },
        {
          "internalType": "bytes",
          "name": "y1",
          "type": "bytes"
        },
        {
          "internalType": "bytes",
          "name": "pi1",
          "type": "bytes"
        },
        {
          "internalType": "bytes",
          "name": "q1",
          "type": "bytes"
        },
        {
          "internalType": "address",
          "name": "addr_bad",
          "type": "address"
        }
      ],
      "name": "Complaint_invalid_left_proof",
      "outputs": [],
      "stateMutability": "nonpayable",
      "type": "function"
    },
    {
      "inputs": [
        {
          "internalType": "uint256",
          "name": "req_id",
          "type": "uint256"
        },
        {
          "internalType": "bytes32",
          "name": "hash1",
          "type": "bytes32"
        },
        {
          "internalType": "bytes32",
          "name": "hash2",
          "type": "bytes32"
        },
        {
          "internalType": "bytes",
          "name": "y2",
          "type": "bytes"
        },
        {
          "internalType": "bytes",
          "name": "pi2",
          "type": "bytes"
        },
        {
          "internalType": "bytes",
          "name": "q2",
          "type": "bytes"
        },
        {
          "internalType": "address",
          "name": "addr_bad",
          "type": "address"
        }
      ],
      "name": "complain_invalid_right_proof",
      "outputs": [],
      "stateMutability": "nonpayable",
      "type": "function"
    },
    {
      "inputs": [
        {
          "internalType": "address",
          "name": "a",
          "type": "address"
        }
      ],
      "name": "toBytes",
      "outputs": [
        {
          "internalType": "bytes",
          "name": "b",
          "type": "bytes"
        }
      ],
      "stateMutability": "pure",
      "type": "function",
      "constant": true
    },
    {
      "inputs": [
        {
          "internalType": "uint256",
          "name": "x",
          "type": "uint256"
        }
      ],
      "name": "toBytes",
      "outputs": [
        {
          "internalType": "bytes",
          "name": "b",
          "type": "bytes"
        }
      ],
      "stateMutability": "pure",
      "type": "function",
      "constant": true
    }
  ],
  "bytecode": "0x6080604052604051806101200160405280610100815260200162005754610100913960009080519060200190620000389291906200004d565b503480156200004657600080fd5b50620000f3565b828054600181600116156101000203166002900490600052602060002090601f016020900481019282601f106200009057805160ff1916838001178555620000c1565b82800160010185558215620000c1579182015b82811115620000c0578251825591602001919060010190620000a3565b5b509050620000d09190620000d4565b5090565b5b80821115620000ef576000816000905550600101620000d5565b5090565b61565180620001036000396000f3fe6080604052600436106100f35760003560e01c806360c2d7931161008a578063a6220a1111610059578063a6220a1114610eaf578063b141110f14610f3c578063bccf9edd14611170578063c0a3b865146111cb576100f3565b806360c2d793146109f05780637362782614610bfa578063775a8f5e14610c5e5780638c4d38ce14610d12576100f3565b8063432f3219116100c6578063432f32191461053057806348d191d2146106a3578063503513a5146108d7578063593b79fe14610926576100f3565b8063022e3d29146100f857806321cd02621461013d5780632e1897b0146101a757806341db80dc146101e2575b600080fd5b34801561010457600080fd5b5061013b6004803603604081101561011b57600080fd5b8101908080359060200190929190803590602001909291905050506115a2565b005b6101a5600480360360e081101561015357600080fd5b8101908080359060200190929190803590602001909291908035906020019092919080359060200190929190803590602001909291908035906020019092919080359060200190929190505050611922565b005b3480156101b357600080fd5b506101e0600480360360208110156101ca57600080fd5b8101908080359060200190929190505050611c23565b005b3480156101ee57600080fd5b50610518600480360360e081101561020557600080fd5b810190808035906020019064010000000081111561022257600080fd5b82018360208201111561023457600080fd5b8035906020019184600183028401116401000000008311171561025657600080fd5b91908080601f016020809104026020016040519081016040528093929190818152602001838380828437600081840152601f19601f820116905080830192505050505050509192919290803590602001906401000000008111156102b957600080fd5b8201836020820111156102cb57600080fd5b803590602001918460018302840111640100000000831117156102ed57600080fd5b91908080601f016020809104026020016040519081016040528093929190818152602001838380828437600081840152601f19601f8201169050808301925050505050505091929192908035906020019064010000000081111561035057600080fd5b82018360208201111561036257600080fd5b8035906020019184600183028401116401000000008311171561038457600080fd5b91908080601f016020809104026020016040519081016040528093929190818152602001838380828437600081840152601f19601f820116905080830192505050505050509192919290803590602001906401000000008111156103e757600080fd5b8201836020820111156103f957600080fd5b8035906020019184600183028401116401000000008311171561041b57600080fd5b91908080601f016020809104026020016040519081016040528093929190818152602001838380828437600081840152601f19601f8201169050808301925050505050505091929192908035906020019064010000000081111561047e57600080fd5b82018360208201111561049057600080fd5b803590602001918460018302840111640100000000831117156104b257600080fd5b91908080601f016020809104026020016040519081016040528093929190818152602001838380828437600081840152601f19601f8201169050808301925050505050505091929192908035906020019092919080359060200190929190505050611e80565b60405180821515815260200191505060405180910390f35b34801561053c57600080fd5b5061068d6004803603604081101561055357600080fd5b810190808035906020019064010000000081111561057057600080fd5b82018360208201111561058257600080fd5b803590602001918460018302840111640100000000831117156105a457600080fd5b91908080601f016020809104026020016040519081016040528093929190818152602001838380828437600081840152601f19601f8201169050808301925050505050505091929192908035906020019064010000000081111561060757600080fd5b82018360208201111561061957600080fd5b8035906020019184600183028401116401000000008311171561063b57600080fd5b91908080601f016020809104026020016040519081016040528093929190818152602001838380828437600081840152601f19601f8201169050808301925050505050505091929192905050506123b8565b6040518082815260200191505060405180910390f35b3480156106af57600080fd5b506108d5600480360360e08110156106c657600080fd5b810190808035906020019092919080359060200190929190803590602001909291908035906020019064010000000081111561070157600080fd5b82018360208201111561071357600080fd5b8035906020019184600183028401116401000000008311171561073557600080fd5b91908080601f016020809104026020016040519081016040528093929190818152602001838380828437600081840152601f19601f8201169050808301925050505050505091929192908035906020019064010000000081111561079857600080fd5b8201836020820111156107aa57600080fd5b803590602001918460018302840111640100000000831117156107cc57600080fd5b91908080601f016020809104026020016040519081016040528093929190818152602001838380828437600081840152601f19601f8201169050808301925050505050505091929192908035906020019064010000000081111561082f57600080fd5b82018360208201111561084157600080fd5b8035906020019184600183028401116401000000008311171561086357600080fd5b91908080601f016020809104026020016040519081016040528093929190818152602001838380828437600081840152601f19601f820116905080830192505050505050509192919290803573ffffffffffffffffffffffffffffffffffffffff169060200190929190505050612487565b005b3480156108e357600080fd5b50610924600480360360608110156108fa57600080fd5b8101908080359060200190929190803590602001909291908035906020019092919050505061293c565b005b34801561093257600080fd5b506109756004803603602081101561094957600080fd5b81019080803573ffffffffffffffffffffffffffffffffffffffff169060200190929190505050613089565b6040518080602001828103825283818151815260200191508051906020019080838360005b838110156109b557808201518184015260208101905061099a565b50505050905090810190601f1680156109e25780820380516001836020036101000a031916815260200191505b509250505060405180910390f35b3480156109fc57600080fd5b50610be460048036036060811015610a1357600080fd5b8101908080359060200190640100000000811115610a3057600080fd5b820183602082011115610a4257600080fd5b80359060200191846001830284011164010000000083111715610a6457600080fd5b91908080601f016020809104026020016040519081016040528093929190818152602001838380828437600081840152601f19601f82011690508083019250505050505050919291929080359060200190640100000000811115610ac757600080fd5b820183602082011115610ad957600080fd5b80359060200191846001830284011164010000000083111715610afb57600080fd5b91908080601f016020809104026020016040519081016040528093929190818152602001838380828437600081840152601f19601f82011690508083019250505050505050919291929080359060200190640100000000811115610b5e57600080fd5b820183602082011115610b7057600080fd5b80359060200191846001830284011164010000000083111715610b9257600080fd5b91908080601f016020809104026020016040519081016040528093929190818152602001838380828437600081840152601f19601f8201169050808301925050505050505091929192905050506130d4565b6040518082815260200191505060405180910390f35b348015610c0657600080fd5b50610c3360048036036020811015610c1d57600080fd5b81019080803590602001909291905050506131f7565b6040518085815260200184815260200183815260200182815260200194505050505060405180910390f35b348015610c6a57600080fd5b50610c9760048036036020811015610c8157600080fd5b8101908080359060200190929190505050613268565b6040518080602001828103825283818151815260200191508051906020019080838360005b83811015610cd7578082015181840152602081019050610cbc565b50505050905090810190601f168015610d045780820380516001836020036101000a031916815260200191505b509250505060405180910390f35b348015610d1e57600080fd5b50610ead600480360360c0811015610d3557600080fd5b8101908080359060200190929190803590602001909291908035906020019092919080359060200190640100000000811115610d7057600080fd5b820183602082011115610d8257600080fd5b80359060200191846001830284011164010000000083111715610da457600080fd5b91908080601f016020809104026020016040519081016040528093929190818152602001838380828437600081840152601f19601f82011690508083019250505050505050919291929080359060200190640100000000811115610e0757600080fd5b820183602082011115610e1957600080fd5b80359060200191846001830284011164010000000083111715610e3b57600080fd5b91908080601f016020809104026020016040519081016040528093929190818152602001838380828437600081840152601f19601f820116905080830192505050505050509192919290803573ffffffffffffffffffffffffffffffffffffffff1690602001909291905050506132c3565b005b610f3a60048036036060811015610ec557600080fd5b8101908080359060200190640100000000811115610ee257600080fd5b820183602082011115610ef457600080fd5b80359060200191846001830284011164010000000083111715610f1657600080fd5b90919293919293908035906020019092919080359060200190929190505050613839565b005b348015610f4857600080fd5b5061116e600480360360e0811015610f5f57600080fd5b8101908080359060200190929190803590602001909291908035906020019092919080359060200190640100000000811115610f9a57600080fd5b820183602082011115610fac57600080fd5b80359060200191846001830284011164010000000083111715610fce57600080fd5b91908080601f016020809104026020016040519081016040528093929190818152602001838380828437600081840152601f19601f8201169050808301925050505050505091929192908035906020019064010000000081111561103157600080fd5b82018360208201111561104357600080fd5b8035906020019184600183028401116401000000008311171561106557600080fd5b91908080601f016020809104026020016040519081016040528093929190818152602001838380828437600081840152601f19601f820116905080830192505050505050509192919290803590602001906401000000008111156110c857600080fd5b8201836020820111156110da57600080fd5b803590602001918460018302840111640100000000831117156110fc57600080fd5b91908080601f016020809104026020016040519081016040528093929190818152602001838380828437600081840152601f19601f820116905080830192505050505050509192919290803573ffffffffffffffffffffffffffffffffffffffff169060200190929190505050613a29565b005b34801561117c57600080fd5b506111c96004803603604081101561119357600080fd5b8101908080359060200190929190803573ffffffffffffffffffffffffffffffffffffffff169060200190929190505050613e96565b005b6115a060048036036101408110156111e257600080fd5b81019080803590602001909291908035906020019092919080359060200190929190803590602001909291908035906020019064010000000081111561122757600080fd5b82018360208201111561123957600080fd5b8035906020019184600183028401116401000000008311171561125b57600080fd5b91908080601f016020809104026020016040519081016040528093929190818152602001838380828437600081840152601f19601f820116905080830192505050505050509192919290803590602001906401000000008111156112be57600080fd5b8201836020820111156112d057600080fd5b803590602001918460018302840111640100000000831117156112f257600080fd5b91908080601f016020809104026020016040519081016040528093929190818152602001838380828437600081840152601f19601f8201169050808301925050505050505091929192908035906020019064010000000081111561135557600080fd5b82018360208201111561136757600080fd5b8035906020019184600183028401116401000000008311171561138957600080fd5b91908080601f016020809104026020016040519081016040528093929190818152602001838380828437600081840152601f19601f820116905080830192505050505050509192919290803590602001906401000000008111156113ec57600080fd5b8201836020820111156113fe57600080fd5b8035906020019184600183028401116401000000008311171561142057600080fd5b91908080601f016020809104026020016040519081016040528093929190818152602001838380828437600081840152601f19601f8201169050808301925050505050505091929192908035906020019064010000000081111561148357600080fd5b82018360208201111561149557600080fd5b803590602001918460018302840111640100000000831117156114b757600080fd5b91908080601f016020809104026020016040519081016040528093929190818152602001838380828437600081840152601f19601f8201169050808301925050505050505091929192908035906020019064010000000081111561151a57600080fd5b82018360208201111561152c57600080fd5b8035906020019184600183028401116401000000008311171561154e57600080fd5b91908080601f016020809104026020016040519081016040528093929190818152602001838380828437600081840152601f19601f820116905080830192505050505050509192919290505050614079565b005b6000600260008481526020019081526020016000209050600073ffffffffffffffffffffffffffffffffffffffff168160000160009054906101000a900473ffffffffffffffffffffffffffffffffffffffff1673ffffffffffffffffffffffffffffffffffffffff16141561161757600080fd5b8060050154431161162757600080fd5b806006015443111561163857600080fd5b6116406154a0565b81600b01838154811061164f57fe5b90600052602060002090600202016040518060400160405290816000820154815260200160018201548152505090506116866154bd565b82600c0160003373ffffffffffffffffffffffffffffffffffffffff1673ffffffffffffffffffffffffffffffffffffffff1681526020019081526020016000206040518060800160405290816000820154815260200160018201548152602001600282015481526020016003820154815250509050816000015181600001511461171057600080fd5b6000801b8160000151141561172457600080fd5b600083600a0154905083600701548510156117e0576000846007015485600b018054905010156117805784600b01600186600b0180549050038154811061176757fe5b90600052602060002090600202016001015490506117ab565b84600b0160018660070154038154811061179657fe5b90600052602060002090600202016001015490505b84600701548560080154816117bc57fe5b048111156117d95784600701548560080154816117d557fe5b0490505b8082019150505b80600360003373ffffffffffffffffffffffffffffffffffffffff1673ffffffffffffffffffffffffffffffffffffffff168152602001908152602001600020600082825403925050819055508084600901600082825403925050819055503373ffffffffffffffffffffffffffffffffffffffff166108fc829081150290604051600060405180830381858888f19350505050158015611885573d6000803e3d6000fd5b5083600b01858154811061189557fe5b90600052602060002090600202016000808201600090556001820160009055505083600c0160003373ffffffffffffffffffffffffffffffffffffffff1673ffffffffffffffffffffffffffffffffffffffff1681526020019081526020016000206000808201600090556001820160009055600282016000905560038201600090555050505050505050565b813414611997576040517f08c379a00000000000000000000000000000000000000000000000000000000081526004018080602001828103825260108152602001807f496e7375666669656e742066756e64730000000000000000000000000000000081525060200191505060405180910390fd5b868611611a0c576040517f08c379a000000000000000000000000000000000000000000000000000000000815260040180806020018281038252600f8152602001807f545f636f6d70203c20545f736f6c76000000000000000000000000000000000081525060200191505060405180910390fd5b858511611a81576040517f08c379a000000000000000000000000000000000000000000000000000000000815260040180806020018281038252600e8152602001807f545f61736b203c20545f636f6d7000000000000000000000000000000000000081525060200191505060405180910390fd5b848411611af6576040517f08c379a00000000000000000000000000000000000000000000000000000000081526004018080602001828103825260108152602001807f545f726566756e64203c20545f61736b0000000000000000000000000000000081525060200191505060405180910390fd5b6000600160008154809291906001019190505590506000600260008381526020019081526020016000209050338160000160006101000a81548173ffffffffffffffffffffffffffffffffffffffff021916908373ffffffffffffffffffffffffffffffffffffffff1602179055508881600301819055508781600401819055508681600501819055508581600601819055508481600701819055508381600801819055508381600901819055508281600a018190555034600360003373ffffffffffffffffffffffffffffffffffffffff1673ffffffffffffffffffffffffffffffffffffffff16815260200190815260200160002060008282540192505081905550600181600d0160006101000a81548160ff021916908360ff160217905550505050505050505050565b60006002600083815260200190815260200160002090503373ffffffffffffffffffffffffffffffffffffffff168160000160009054906101000a900473ffffffffffffffffffffffffffffffffffffffff1673ffffffffffffffffffffffffffffffffffffffff1614611cff576040517f08c379a000000000000000000000000000000000000000000000000000000000815260040180806020018281038252600e8152602001807f496e76616c69642073656e64657200000000000000000000000000000000000081525060200191505060405180910390fd5b80600601544311611d78576040517f08c379a00000000000000000000000000000000000000000000000000000000081526004018080602001828103825260188152602001807f4e6f7420612074696d6520746f20726566756e6420796574000000000000000081525060200191505060405180910390fd5b3373ffffffffffffffffffffffffffffffffffffffff166108fc82600901549081150290604051600060405180830381858888f19350505050158015611dc2573d6000803e3d6000fd5b5060026000838152602001908152602001600020600080820160006101000a81549073ffffffffffffffffffffffffffffffffffffffff0219169055600182016000611e0e91906154eb565b60028201600090556003820160009055600482016000905560058201600090556006820160009055600782016000905560088201600090556009820160009055600a820160009055600b82016000611e669190615533565b600d820160006101000a81549060ff021916905550505050565b6000611e8b836146fd565b611efd576040517f08c379a000000000000000000000000000000000000000000000000000000000815260040180806020018281038252600d8152602001807f696e76616c6964206e6f6e63650000000000000000000000000000000000000081525060200191505060405180910390fd5b611f068861470c565b611f78576040517f08c379a00000000000000000000000000000000000000000000000000000000081526004018080602001828103825260188152602001807f696e76616c69642067726f757020656c656d656e743a2067000000000000000081525060200191505060405180910390fd5b611f81886149aa565b15611ff4576040517f08c379a00000000000000000000000000000000000000000000000000000000081526004018080602001828103825260158152602001807f7a65726f2067726f757020656c656d656e743a2067000000000000000000000081525060200191505060405180910390fd5b611ffd8761470c565b61206f576040517f08c379a00000000000000000000000000000000000000000000000000000000081526004018080602001828103825260198152602001807f696e76616c69642067726f757020656c656d656e743a2070690000000000000081525060200191505060405180910390fd5b612078876149aa565b156120eb576040517f08c379a00000000000000000000000000000000000000000000000000000000081526004018080602001828103825260168152602001807f7a65726f2067726f757020656c656d656e743a2070690000000000000000000081525060200191505060405180910390fd5b6120f48661470c565b612166576040517f08c379a00000000000000000000000000000000000000000000000000000000081526004018080602001828103825260188152602001807f696e76616c69642067726f757020656c656d656e743a2079000000000000000081525060200191505060405180910390fd5b61216f866149aa565b156121e2576040517f08c379a00000000000000000000000000000000000000000000000000000000081526004018080602001828103825260158152602001807f7a65726f2067726f757020656c656d656e743a2079000000000000000000000081525060200191505060405180910390fd5b6121eb8561470c565b61225d576040517f08c379a000000000000000000000000000000000000000000000000000000000815260040180806020018281038252601f8152602001807f696e76616c69642067726f757020656c656d656e743a2068656c70657220710081525060200191505060405180910390fd5b600061226b898886886149ed565b90506000600182161415612280576001810190505b61228981614b1c565b6122fb576040517f08c379a00000000000000000000000000000000000000000000000000000000081526004018080602001828103825260138152602001807f6e6f6e207072696d65206368616c6c656e67650000000000000000000000000081525060200191505060405180910390fd5b600061230960028584614c62565b905060606123178a84614cb9565b905060606123258c84614cb9565b905061233382828c8c614e9e565b6123a5576040517f08c379a00000000000000000000000000000000000000000000000000000000081526004018080602001828103825260138152602001807f766572696669636174696f6e206661696c65640000000000000000000000000081525060200191505060405180910390fd5b6001945050505050979650505050505050565b600082826040516020018083805190602001908083835b602083106123f257805182526020820191506020810190506020830392506123cf565b6001836020036101000a03801982511681845116808217855250505050505090500182805190602001908083835b602083106124435780518252602082019150602081019050602083039250612420565b6001836020036101000a0380198251168184511680821785525050505050509050019250505060405160208183030381529060405280519060200120905092915050565b6000600260008981526020019081526020016000209050600073ffffffffffffffffffffffffffffffffffffffff168160000160009054906101000a900473ffffffffffffffffffffffffffffffffffffffff1673ffffffffffffffffffffffffffffffffffffffff1614156124fc57600080fd5b806004015443111561250d57600080fd5b600081600c0160008473ffffffffffffffffffffffffffffffffffffffff1673ffffffffffffffffffffffffffffffffffffffff168152602001908152602001600020905060008686866040516020018084805190602001908083835b6020831061258d578051825260208201915060208101905060208303925061256a565b6001836020036101000a03801982511681845116808217855250505050505090500183805190602001908083835b602083106125de57805182526020820191506020810190506020830392506125bb565b6001836020036101000a03801982511681845116808217855250505050505090500182805190602001908083835b6020831061262f578051825260208201915060208101905060208303925061260c565b6001836020036101000a0380198251168184511680821785525050505050509050019350505050604051602081830303815290604052805190602001209050600089828a87604051602001808581526020018481526020018381526020018273ffffffffffffffffffffffffffffffffffffffff1660601b8152601401945050505050604051602081830303815290604052805190602001209050826000015481146126da57600080fd5b60006126f0600286600201548660020154614c62565b90506060612702898660020154614cb9565b905060606127ac876001018054600181600116156101000203166002900480601f0160208091040260200160405190810160405280929190818152602001828054600181600116156101000203166002900480156127a15780601f10612776576101008083540402835291602001916127a1565b820191906000526020600020905b81548152906001019060200180831161278457829003601f168201915b505050505084614cb9565b90506127ba82828d8c614e9e565b61282c576040517f08c379a00000000000000000000000000000000000000000000000000000000081526004018080602001828103825260168152602001807f54686520736f6c7665722077617320636f72726563740000000000000000000081525060200191505060405180910390fd5b86600c0160008973ffffffffffffffffffffffffffffffffffffffff1673ffffffffffffffffffffffffffffffffffffffff168152602001908152602001600020600080820160009055600182016000905560028201600090556003820160009055505086600a0154600360008a73ffffffffffffffffffffffffffffffffffffffff1673ffffffffffffffffffffffffffffffffffffffff168152602001908152602001600020600082825403925050819055503373ffffffffffffffffffffffffffffffffffffffff166108fc88600a01549081150290604051600060405180830381858888f1935050505015801561292b573d6000803e3d6000fd5b505050505050505050505050505050565b6000600260008581526020019081526020016000209050600073ffffffffffffffffffffffffffffffffffffffff168160000160009054906101000a900473ffffffffffffffffffffffffffffffffffffffff1673ffffffffffffffffffffffffffffffffffffffff161415612a1a576040517f08c379a000000000000000000000000000000000000000000000000000000000815260040180806020018281038252600d8152602001807f496e76616c69642072657169640000000000000000000000000000000000000081525060200191505060405180910390fd5b80600401544311612a93576040517f08c379a00000000000000000000000000000000000000000000000000000000081526004018080602001828103825260178152602001807f436f6d706c61696e742074696d65206e6f74206f76657200000000000000000081525060200191505060405180910390fd5b8060050154431115612b0d576040517f08c379a00000000000000000000000000000000000000000000000000000000081526004018080602001828103825260108152602001807f61736b696e672074696d65206f7665720000000000000000000000000000000081525060200191505060405180910390fd5b600081600c0160003373ffffffffffffffffffffffffffffffffffffffff1673ffffffffffffffffffffffffffffffffffffffff16815260200190815260200160002090508060030154848460405160200180838152602001828152602001925050506040516020818303038152906040528051906020012014612bf9576040517f08c379a00000000000000000000000000000000000000000000000000000000081526004018080602001828103825260148152602001807f68617368206973206e6f74206d61746368696e6700000000000000000000000081525060200191505060405180910390fd5b612c016154a0565b816000015481600001818152505084816020018181525050600083600b01805490501415612c725782600b0181908060018154018082558091505060019003906000526020600020906002020160009091909190915060008201518160000155602082015181600101555050613081565b600183600b01805490501415612dbc578483600b01600081548110612c9357fe5b9060005260206000209060020201600101541015612cf45782600b0181908060018154018082558091505060019003906000526020600020906002020160009091909190915060008201518160000155602082015181600101555050612db7565b612cfc6154a0565b83600b01600081548110612d0c57fe5b90600052602060002090600202016040518060400160405290816000820154815260200160018201548152505090508184600b01600081548110612d4c57fe5b9060005260206000209060020201600082015181600001556020820151816001015590505083600b0181908060018154018082558091505060019003906000526020600020906002020160009091909190915060008201518160000155602082015181600101555050505b613080565b82600b01600184600b01805490500381548110612dd557fe5b9060005260206000209060020201600101548510612e365782600b018190806001815401808255809150506001900390600052602060002090600202016000909190919091506000820151816000015560208201518160010155505061307f565b82600b01600081548110612e4657fe5b906000526020600020906002020160010154851015612f5357612e676154a0565b819050612e726154a0565b60005b85600b0180549050811015612f075785600b018181548110612e9357fe5b90600052602060002090600202016040518060400160405290816000820154815260200160018201548152505091508286600b018281548110612ed257fe5b906000526020600020906002020160008201518160000155602082015181600101559050508192508080600101915050612e75565b5084600b0182908060018154018082558091505060019003906000526020600020906002020160009091909190915060008201518160000155602082015181600101555050505061307e565b6000600190505b83600b018054905081101561307c5783600b018181548110612f7857fe5b90600052602060002090600202016001015486108015612fb7575083600b018181548110612fa257fe5b90600052602060002090600202016001015486115b1561306f57612fc46154a0565b829050612fcf6154a0565b60008390505b86600b01805490508110156130675786600b018181548110612ff357fe5b90600052602060002090600202016040518060400160405290816000820154815260200160018201548152505091508287600b01828154811061303257fe5b906000526020600020906002020160008201518160000155602082015181600101559050508192508080600101915050612fd5565b50505061307c565b8080600101915050612f5a565b505b5b5b5b505050505050565b606060405173ffffffffffffffffffffffffffffffffffffffff8316925082741400000000000000000000000000000000000000001860148201526034810160405280915050919050565b60008383836040516020018084805190602001908083835b6020831061310f57805182526020820191506020810190506020830392506130ec565b6001836020036101000a03801982511681845116808217855250505050505090500183805190602001908083835b60208310613160578051825260208201915060208101905060208303925061313d565b6001836020036101000a03801982511681845116808217855250505050505090500182805190602001908083835b602083106131b1578051825260208201915060208101905060208303925061318e565b6001836020036101000a03801982511681845116808217855250505050505090500193505050506040516020818303038152906040528051906020012090509392505050565b600080600080600260008681526020019081526020016000206003015493506002600086815260200190815260200160002060040154925060026000868152602001908152602001600020600501549150600260008681526020019081526020016000206006015490509193509193565b6060602067ffffffffffffffff8111801561328257600080fd5b506040519080825280601f01601f1916602001820160405280156132b55781602001600182028036833780820191505090505b509050816020820152919050565b6000600260008881526020019081526020016000209050600073ffffffffffffffffffffffffffffffffffffffff168160000160009054906101000a900473ffffffffffffffffffffffffffffffffffffffff1673ffffffffffffffffffffffffffffffffffffffff16141561333857600080fd5b806004015443111561334957600080fd5b600081600c0160008473ffffffffffffffffffffffffffffffffffffffff1673ffffffffffffffffffffffffffffffffffffffff1681526020019081526020016000209050600085856040516020018083805190602001908083835b602083106133c857805182526020820191506020810190506020830392506133a5565b6001836020036101000a03801982511681845116808217855250505050505090500182805190602001908083835b6020831061341957805182526020820191506020810190506020830392506133f6565b6001836020036101000a03801982511681845116808217855250505050505090500192505050604051602081830303815290604052805190602001209050600081898987604051602001808581526020018481526020018381526020018273ffffffffffffffffffffffffffffffffffffffff1660601b81526014019450505050506040516020818303038152906040528051906020012090508260000154811461352c576040517f08c379a00000000000000000000000000000000000000000000000000000000081526004018080602001828103825260148152602001807f496e76616c69642068617368657320676976656e00000000000000000000000081525060200191505060405180910390fd5b606061353786613089565b905060606135e96135e4876001018054600181600116156101000203166002900480601f0160208091040260200160405190810160405280929190818152602001828054600181600116156101000203166002900480156135d95780601f106135ae576101008083540402835291602001916135d9565b820191906000526020600020905b8154815290600101906020018083116135bc57829003601f168201915b505050505084614f76565b613268565b9050600061369b876001018054600181600116156101000203166002900480601f0160208091040260200160405190810160405280929190818152602001828054600181600116156101000203166002900480156136885780601f1061365d57610100808354040283529160200191613688565b820191906000526020600020905b81548152906001019060200180831161366b57829003601f168201915b5050505050838c8c8a6001015488615048565b9050856002015481141580156136b8575085600201546001820114155b61372a576040517f08c379a00000000000000000000000000000000000000000000000000000000081526004018080602001828103825260168152602001807f54686520736f6c7665722077617320636f72726563740000000000000000000081525060200191505060405180910390fd5b86600c0160008973ffffffffffffffffffffffffffffffffffffffff1673ffffffffffffffffffffffffffffffffffffffff168152602001908152602001600020600080820160009055600182016000905560028201600090556003820160009055505086600a0154600360008a73ffffffffffffffffffffffffffffffffffffffff1673ffffffffffffffffffffffffffffffffffffffff168152602001908152602001600020600082825403925050819055503373ffffffffffffffffffffffffffffffffffffffff166108fc88600a01549081150290604051600060405180830381858888f19350505050158015613829573d6000803e3d6000fd5b5050505050505050505050505050565b60006002600083815260200190815260200160002090503373ffffffffffffffffffffffffffffffffffffffff168160000160009054906101000a900473ffffffffffffffffffffffffffffffffffffffff1673ffffffffffffffffffffffffffffffffffffffff1614613915576040517f08c379a000000000000000000000000000000000000000000000000000000000815260040180806020018281038252600e8152602001807f496e76616c69642073656e64657200000000000000000000000000000000000081525060200191505060405180910390fd5b600181600d0160009054906101000a900460ff1660ff161461399f576040517f08c379a000000000000000000000000000000000000000000000000000000000815260040180806020018281038252600d8152602001807f496e76616c69642073746167650000000000000000000000000000000000000081525060200191505060405180910390fd5b84848260010191906139b2929190615557565b50828160020181905550600281600d0160006101000a81548160ff021916908360ff1602179055504381600301600082825401925050819055504381600401600082825401925050819055504381600501600082825401925050819055504381600601600082825401925050819055505050505050565b6000600260008981526020019081526020016000209050600073ffffffffffffffffffffffffffffffffffffffff168160000160009054906101000a900473ffffffffffffffffffffffffffffffffffffffff1673ffffffffffffffffffffffffffffffffffffffff161415613a9e57600080fd5b8060040154431115613aaf57600080fd5b600081600c0160008473ffffffffffffffffffffffffffffffffffffffff1673ffffffffffffffffffffffffffffffffffffffff168152602001908152602001600020905060008686866040516020018084805190602001908083835b60208310613b2f5780518252602082019150602081019050602083039250613b0c565b6001836020036101000a03801982511681845116808217855250505050505090500183805190602001908083835b60208310613b805780518252602082019150602081019050602083039250613b5d565b6001836020036101000a03801982511681845116808217855250505050505090500182805190602001908083835b60208310613bd15780518252602082019150602081019050602083039250613bae565b6001836020036101000a0380198251168184511680821785525050505050509050019350505050604051602081830303815290604052805190602001209050600089898387604051602001808581526020018481526020018381526020018273ffffffffffffffffffffffffffffffffffffffff1660601b815260140194505050505060405160208183030381529060405280519060200120905082600001548114613c7c57600080fd5b6000613c92600286600201548660020154614c62565b90506060613ca4898660020154614cb9565b90506060613cb188613089565b90506060613d63613d5e896001018054600181600116156101000203166002900480601f016020809104026020016040519081016040528092919081815260200182805460018160011615610100020316600290048015613d535780601f10613d2857610100808354040283529160200191613d53565b820191906000526020600020905b815481529060010190602001808311613d3657829003601f168201915b505050505084614f76565b613268565b90506060613d718286614cb9565b9050613d7f84828f8e614e9e565b613e845788600c0160008b73ffffffffffffffffffffffffffffffffffffffff1673ffffffffffffffffffffffffffffffffffffffff168152602001908152602001600020600080820160009055600182016000905560028201600090556003820160009055505088600a0154600360008c73ffffffffffffffffffffffffffffffffffffffff1673ffffffffffffffffffffffffffffffffffffffff168152602001908152602001600020600082825403925050819055503373ffffffffffffffffffffffffffffffffffffffff166108fc8a600a01549081150290604051600060405180830381858888f19350505050158015613e82573d6000803e3d6000fd5b505b50505050505050505050505050505050565b6000600260008481526020019081526020016000209050600073ffffffffffffffffffffffffffffffffffffffff168160000160009054906101000a900473ffffffffffffffffffffffffffffffffffffffff1673ffffffffffffffffffffffffffffffffffffffff161415613f0b57600080fd5b8060040154431115613f1c57600080fd5b600081600c0160008473ffffffffffffffffffffffffffffffffffffffff1673ffffffffffffffffffffffffffffffffffffffff1681526020019081526020016000209050613f6e8160020154614b1c565b6140735781600c0160008473ffffffffffffffffffffffffffffffffffffffff1673ffffffffffffffffffffffffffffffffffffffff168152602001908152602001600020600080820160009055600182016000905560028201600090556003820160009055505081600a0154600360008573ffffffffffffffffffffffffffffffffffffffff1673ffffffffffffffffffffffffffffffffffffffff168152602001908152602001600020600082825403925050819055503373ffffffffffffffffffffffffffffffffffffffff166108fc83600a01549081150290604051600060405180830381858888f19350505050158015614071573d6000803e3d6000fd5b505b50505050565b6000600260008c81526020019081526020016000209050600073ffffffffffffffffffffffffffffffffffffffff168160000160009054906101000a900473ffffffffffffffffffffffffffffffffffffffff1673ffffffffffffffffffffffffffffffffffffffff161415614157576040517f08c379a000000000000000000000000000000000000000000000000000000000815260040180806020018281038252600d8152602001807f496e76616c69642072657169640000000000000000000000000000000000000081525060200191505060405180910390fd5b600281600d0160009054906101000a900460ff1660ff16146141e1576040517f08c379a000000000000000000000000000000000000000000000000000000000815260040180806020018281038252600d8152602001807f496e76616c69642073746167650000000000000000000000000000000000000081525060200191505060405180910390fd5b80600a0154341461425a576040517f08c379a00000000000000000000000000000000000000000000000000000000081526004018080602001828103825260148152602001807f496e636f727265637420636f6c6c61746572616c00000000000000000000000081525060200191505060405180910390fd5b80600301544311156142d4576040517f08c379a00000000000000000000000000000000000000000000000000000000081526004018080602001828103825260178152602001807f496e73756666696369656e7420736f6c76652074696d6500000000000000000081525060200191505060405180910390fd5b600085856040516020018083805190602001908083835b6020831061430e57805182526020820191506020810190506020830392506142eb565b6001836020036101000a03801982511681845116808217855250505050505090500182805190602001908083835b6020831061435f578051825260208201915060208101905060208303925061433c565b6001836020036101000a0380198251168184511680821785525050505050509050019250505060405160208183030381529060405280519060200120905060008689866040516020018084805190602001908083835b602083106143d857805182526020820191506020810190506020830392506143b5565b6001836020036101000a03801982511681845116808217855250505050505090500183805190602001908083835b602083106144295780518252602082019150602081019050602083039250614406565b6001836020036101000a03801982511681845116808217855250505050505090500182805190602001908083835b6020831061447a5780518252602082019150602081019050602083039250614457565b6001836020036101000a038019825116818451168082178552505050505050905001935050505060405160208183030381529060405280519060200120905060008689866040516020018084805190602001908083835b602083106144f457805182526020820191506020810190506020830392506144d1565b6001836020036101000a03801982511681845116808217855250505050505090500183805190602001908083835b602083106145455780518252602082019150602081019050602083039250614522565b6001836020036101000a03801982511681845116808217855250505050505090500182805190602001908083835b602083106145965780518252602082019150602081019050602083039250614573565b6001836020036101000a0380198251168184511680821785525050505050509050019350505050604051602081830303815290604052805190602001209050600083838333604051602001808581526020018481526020018381526020018273ffffffffffffffffffffffffffffffffffffffff1660601b8152601401945050505050604051602081830303815290604052805190602001209050600085600c0160003373ffffffffffffffffffffffffffffffffffffffff1673ffffffffffffffffffffffffffffffffffffffff16815260200190815260200160002090508c81600101819055508d81600201819055508e816003018190555081816000018190555085600a0154600360003373ffffffffffffffffffffffffffffffffffffffff1673ffffffffffffffffffffffffffffffffffffffff1681526020019081526020016000206000828254019250508190555050505050505050505050505050505050565b60006201000082109050919050565b600061010082511461472157600090506149a5565b6001905060208201517fc7970ceedcc3b0754490201a7aa613cd73911081c790f5f1a8726f463550bb5b811091507fc7970ceedcc3b0754490201a7aa613cd73911081c790f5f1a8726f463550bb5b8114156149a357604083015190507f7ff0db8e1ea1189ec72f93d1650011bd721aeeacc2acde32a04107f0648c2813811091507f7ff0db8e1ea1189ec72f93d1650011bd721aeeacc2acde32a04107f0648c28138114156149a257606083015190507fa31f5b0b7765ff8b44b4b6ffc93384b646eb09c7cf5e8592d40ea33c80039f35811091507fa31f5b0b7765ff8b44b4b6ffc93384b646eb09c7cf5e8592d40ea33c80039f358114156149a157608083015190507fb4f14a04b51f7bfd781be4d1673164ba8eb991c2c4d730bbbe35f592bdef524a811091507fb4f14a04b51f7bfd781be4d1673164ba8eb991c2c4d730bbbe35f592bdef524a8114156149a05760a083015190507ff7e8daefd26c66fc02c479af89d64d373f442709439de66ceb955f3ea37d5159811091507ff7e8daefd26c66fc02c479af89d64d373f442709439de66ceb955f3ea37d515981141561499f5760c083015190507ff6135809f85334b5cb1813addc80cd05609f10ac6a95ad65872c909525bdad32811091507ff6135809f85334b5cb1813addc80cd05609f10ac6a95ad65872c909525bdad3281141561499e5760e083015190507fbc729592642920f24c61dc5b3c3b7923e56b16a4d9d373d8721f24a3fc0f1b31811091507fbc729592642920f24c61dc5b3c3b7923e56b16a4d9d373d8721f24a3fc0f1b3181141561499d5761010083015190507f31f55615172866bccc30f95054c824e733a5eb6817f7bc16399d48c6361cc7e5811091505b5b5b5b5b5b5b505b919050565b60006101008251146149bf57600090506149e8565b6001905060205b6101018110156149e65760008184015114821691506020810190506149c6565b505b919050565b6000818585856040516020018085805190602001908083835b60208310614a295780518252602082019150602081019050602083039250614a06565b6001836020036101000a03801982511681845116808217855250505050505090500184805190602001908083835b60208310614a7a5780518252602082019150602081019050602083039250614a57565b6001836020036101000a03801982511681845116808217855250505050505090500183805190602001908083835b60208310614acb5780518252602082019150602081019050602083039250614aa8565b6001836020036101000a0380198251168184511680821785525050505050509050018281526020019450505050506040516020818303038152906040528051906020012060001c9050949350505050565b60006004821015614b305760009050614c5d565b6000600183161415614b455760009050614c5d565b600060018303905060005b6000600183161415614b745760028281614b6657fe5b049150600181019050614b50565b60005b600f811015614c55576000600260038703878460405160200180838152602001828152602001925050506040516020818303038152906040528051906020012060001c81614bc157fe5b060190506000614bd2828689614c62565b90506001811480614be557506001870381145b15614bf1575050614c48565b600080600190505b85811015614c2f578880614c0957fe5b838409925060018903831415614c225760019150614c2f565b8080600101915050614bf9565b5080614c445760009650505050505050614c5d565b5050505b8080600101915050614b77565b506001925050505b919050565b600060405160208152602080820152602060408201528460608201528360808201528260a082015260208160c08360056107d05a03fa8060008114614ca657614cab565b600080fd5b508151925050509392505050565b6060604051610100815260208082015261010060408201526020840151606082015260408401516080820152606084015160a0820152608084015160c082015260a084015160e082015260c084015161010082015260e0840151610120820152610100840151610140820152826101608201527fc7970ceedcc3b0754490201a7aa613cd73911081c790f5f1a8726f463550bb5b6101808201527f7ff0db8e1ea1189ec72f93d1650011bd721aeeacc2acde32a04107f0648c28136101a08201527fa31f5b0b7765ff8b44b4b6ffc93384b646eb09c7cf5e8592d40ea33c80039f356101c08201527fb4f14a04b51f7bfd781be4d1673164ba8eb991c2c4d730bbbe35f592bdef524a6101e08201527ff7e8daefd26c66fc02c479af89d64d373f442709439de66ceb955f3ea37d51596102008201527ff6135809f85334b5cb1813addc80cd05609f10ac6a95ad65872c909525bdad326102208201527fbc729592642920f24c61dc5b3c3b7923e56b16a4d9d373d8721f24a3fc0f1b316102408201527f31f55615172866bccc30f95054c824e733a5eb6817f7bc16399d48c6361cc7e5610260820152610100602082016102808360056107d05a03fa8060008114614e8557614e8a565b600080fd5b506101208201604052819250505092915050565b60006060614eac868661521f565b90506060614f548460008054600181600116156101000203166002900480601f016020809104026020016040519081016040528092919081815260200182805460018160011615610100020316600290048015614f4a5780601f10614f1f57610100808354040283529160200191614f4a565b820191906000526020600020905b815481529060010190602001808311614f2d57829003601f168201915b505050505061521f565b9050614f608186615381565b614f6a828261541c565b92505050949350505050565b600082826040516020018083805190602001908083835b60208310614fb05780518252602082019150602081019050602083039250614f8d565b6001836020036101000a03801982511681845116808217855250505050505090500182805190602001908083835b602083106150015780518252602082019150602081019050602083039250614fde565b6001836020036101000a038019825116818451168082178552505050505050905001925050506040516020818303038152906040528051906020012060001c905092915050565b60008685878686866040516020018087805190602001908083835b602083106150865780518252602082019150602081019050602083039250615063565b6001836020036101000a03801982511681845116808217855250505050505090500186805190602001908083835b602083106150d757805182526020820191506020810190506020830392506150b4565b6001836020036101000a03801982511681845116808217855250505050505090500185805190602001908083835b602083106151285780518252602082019150602081019050602083039250615105565b6001836020036101000a03801982511681845116808217855250505050505090500184805190602001908083835b602083106151795780518252602082019150602081019050602083039250615156565b6001836020036101000a03801982511681845116808217855250505050505090500183815260200182805190602001908083835b602083106151d057805182526020820191506020810190506020830392506151ad565b6001836020036101000a03801982511681845116808217855250505050505090500196505050505050506040516020818303038152906040528051906020012060001c90509695505050505050565b60606040516102008152610240810160405260001960008060008060006101008a01519050610100890151945085858209915084810294508482108583030393508461020088015260e05b60008111156152ad57808a01519550868683099250858202955085831086840303935084860195508486108401945085610100820189015260208103905061526a565b508387610100015260e05b600081111561536a578460208983010152808b015191506101008a0151955086868309925085820295508583108684030394506101008101880192508251935083860195508386108501945085835260e05b600081111561535e57808b015196508787840993508683029650868410878503039450858701965085871085019450818101890193508351955085870196508587108501955086845260208103905061530a565b506020810390506152b8565b508387602001528697505050505050505092915050565b610220820161012082016000825182518082019150808210925081855260205b6101018110156153e3576020860395506020850394508551925084519150838301925083831093508183019250818310840193508286526020810190506153a1565b5060005b60208110156154125760208603955085519250838301925083831093508286526020810190506153e7565b5050505050505050565b60008083519050600081141561543657600091505061549a565b60006020828161544257fe5b061461545257600091505061549a565b8251811461546457600091505061549a565b60006001925060205b60018301811015615496576001820191508085015181870151148416935060208101905061546d565b5050505b92915050565b604051806040016040528060008019168152602001600081525090565b6040518060800160405280600080191681526020016000815260200160008152602001600080191681525090565b50805460018160011615610100020316600290046000825580601f106155115750615530565b601f01602090049060005260206000209081019061552f91906155d7565b5b50565b508054600082556002029060005260206000209081019061555491906155f4565b50565b828054600181600116156101000203166002900490600052602060002090601f016020900481019282601f1061559857803560ff19168380011785556155c6565b828001600101855582156155c6579182015b828111156155c55782358255916020019190600101906155aa565b5b5090506155d391906155d7565b5090565b5b808211156155f05760008160009055506001016155d8565b5090565b5b80821115615617576000808201600090556001820160009055506002016155f5565b509056fea264697066735822122063bdd0416080af29001772d501389bb6ab88a007ab057c61ceb115909621b4c064736f6c63430007030033c7970ceedcc3b0754490201a7aa613cd73911081c790f5f1a8726f463550bb5b7ff0db8e1ea1189ec72f93d1650011bd721aeeacc2acde32a04107f0648c2813a31f5b0b7765ff8b44b4b6ffc93384b646eb09c7cf5e8592d40ea33c80039f35b4f14a04b51f7bfd781be4d1673164ba8eb991c2c4d730bbbe35f592bdef524af7e8daefd26c66fc02c479af89d64d373f442709439de66ceb955f3ea37d5159f6135809f85334b5cb1813addc80cd05609f10ac6a95ad65872c909525bdad32bc729592642920f24c61dc5b3c3b7923e56b16a4d9d373d8721f24a3fc0f1b3131f55615172866bccc30f95054c824e733a5eb6817f7bc16399d48c6361cc7e5",
  "immutableReferences": {},
  "source": "// SPDX-License-Identifier: GPL-3.0\npragma solidity >=0.7.0;\n\nimport { VerifyVDF } from \"./VerifyVDF.sol\";\n\n/// @title Voting with delegation.\ncontract OpenSquaring is VerifyVDF {\n\n    struct OpenedResponse {\n        bytes32 data;\n        uint256 price;\n    }\n\n    struct ClosedResponse {\n        bytes32 data;\n        uint256 nonce;\n        uint256 ell;\n        bytes32 asking_price_hash;\n    }\n\n    struct Request {\n        // The address requesting solution for this puzzle\n        address payable client;\n        // The encoded for of the request (g,T,N)\n        // TODO: Store only the hash, and provide it as calldata when needed \n        bytes g;\n        uint256 T;\n\n        // TIMES: All times are in terns of block numbers\n        // t_sol: All solutions must be posted within this time, also submit hash of bid at this time\n        uint256 solve_time;\n        // t_complain: All complaints against solutions must be posted within this time\n        uint256 complaint_time;\n        // t_ask: All bids must be opened by this time\n        uint256 asking_time;\n        // t_refund: The client can claim any remaining money after this time\n        // Solvers must claim their rewards before this time\n        uint256 refund_time;\n\n        // REWARDS (in Wei)\n        // The number of solvers who will be rewarded\n        uint256 k; \n        // p: Total prize for all the winners\n        uint256 p;\n        // money left after claiming\n        uint256 money_left;\n\n        // COLLATERALS TO BE DEPOSITED\n        // The amount of money that needs to be paid by a solver when posting a solution. If the solver is not within the k best bids, this amount will be returned. Otherwise, R/k + solution_collateral will be returned.\n        // ENSURE THAT THIS IS GREATER THAN THE COST TO COMPLAIN AGAINST AN INVALID PUZZLE\n        uint256 solution_collateral;\n\n        // Maintain a list of opened responses that are always in increasing order\n        OpenedResponse[] opened;\n        // The list of all the responses, the response id is the position in the array\n        mapping (address => ClosedResponse) closed;\n\n        // A request needs to be loaded in stages\n        uint8 stage;\n    }\n    uint256 NumRequest;\n\n    // Map NumRequest counter to the request\n    mapping (uint256 => Request) active_puzzles;\n    mapping (address => uint256) bank;\n\n    function NewRequest_p1(uint256 solve_time, uint256 complaint_time, \n        uint256 asking_time, uint256 refund_time,\n        uint256 k, uint256 p,\n        uint256 solution_collateral\n    ) \n        public payable \n    {\n        require(msg.value == p, \"Insuffient funds\");\n        require(complaint_time > solve_time, \"T_comp < T_solv\");\n        require(asking_time > complaint_time, \"T_ask < T_comp\");\n        require(refund_time > asking_time, \"T_refund < T_ask\");\n        // Generate request ID, use a counter to generate the ID instead of an expensive hash\n        uint req_id = NumRequest++;\n        Request storage req = active_puzzles[req_id]; \n        req.client = payable(msg.sender);\n        req.solve_time = solve_time;\n        req.complaint_time = complaint_time;\n        req.asking_time = asking_time;\n        req.refund_time = refund_time;\n        req.k = k;\n        req.p = p;\n        req.money_left = p;\n        req.solution_collateral = solution_collateral;\n        bank[msg.sender] += msg.value;\n        req.stage = 1;\n    }\n\n    function NewRequest_p2(bytes calldata g, uint256 T, uint256 req_id) \n        public payable\n    {\n        Request storage req = active_puzzles[req_id];\n        require(req.client == msg.sender, \"Invalid sender\");\n        require(req.stage == 1, \"Invalid stage\");\n\n        req.g = g;\n        req.T = T;\n        req.stage = 2;\n        req.solve_time += block.number;\n        req.complaint_time += block.number;\n        req.asking_time += block.number;\n        req.refund_time += block.number;\n    }\n\n    function SubmitSolution(uint256 req_id, bytes32 asking_price_hash,\n        uint256 ell, uint256 nonce, \n        bytes memory pi1, bytes memory pi2,\n        bytes memory y1, bytes memory y2,\n        bytes memory q1, bytes memory q2\n    ) public payable \n    {\n        Request storage req = active_puzzles[req_id];\n        require(req.client != payable(0), \"Invalid reqid\");\n        require(req.stage == 2, \"Invalid stage\");\n        require(msg.value == req.solution_collateral, \"Incorrect collateral\");\n        require(block.number <= req.solve_time, \"Insufficient solve time\");\n        // Things you have to do to avoid the stack too deep problems\n        bytes32 data1 = keccak256(abi.encodePacked(y1,y2));\n        bytes32 data2 = keccak256(abi.encodePacked(y1,pi1,q1));\n        bytes32 data3 = keccak256(abi.encodePacked(y2,pi2,q2));\n        bytes32 data = keccak256(abi.encodePacked(data1,data2,data3,msg.sender));\n        ClosedResponse storage response = req.closed[msg.sender];\n        response.nonce = nonce;\n        response.ell = ell;\n        response.asking_price_hash = asking_price_hash;\n        response.data = data;\n        // This msg.sender may be holding on to some other money from other puzzles\n        bank[msg.sender] += req.solution_collateral;\n        // The response ID is (req_id, msg.sender)\n    }\n\n    // DEBUG: TODO DELETE\n    function getTime(uint256 req_id) public view returns (uint256 v1, uint256 v2, uint256 v3, uint256 v4) {\n        v1 = active_puzzles[req_id].solve_time;\n        v2 = active_puzzles[req_id].complaint_time;\n        v3 = active_puzzles[req_id].asking_time;\n        v4 = active_puzzles[req_id].refund_time;\n    }\n\n    function Ask(uint256 req_id, uint256 asking_price, uint256 nonce) public {\n        Request storage req = active_puzzles[req_id];\n        require(req.client != address(0), \"Invalid reqid\");\n        require(block.number > req.complaint_time, \"Complaint time not over\");\n        require(block.number <= req.asking_time, \"asking time over\");\n        \n        ClosedResponse storage resp = req.closed[msg.sender];\n        require(keccak256(abi.encodePacked(asking_price, nonce))==\n            resp.asking_price_hash, \"hash is not matching\");\n\n        OpenedResponse memory ask;\n        ask.data = resp.data;\n        ask.price = asking_price;\n\n        // Bubble sort\n        if (req.opened.length == 0) {\n            // No matter what the position is, insert it at the beginning\n            req.opened.push(ask);\n        } else if (req.opened.length == 1) {\n            if (req.opened[0].price < asking_price) {\n                req.opened.push(ask);\n            } else {\n                OpenedResponse memory temp = req.opened[0];\n                req.opened[0] = ask;\n                req.opened.push(temp); \n            }\n        } else if (asking_price >= req.opened[req.opened.length-1].price) {\n            req.opened.push(ask);\n        } else if (asking_price < req.opened[0].price) {\n            OpenedResponse memory temp = ask;\n            OpenedResponse memory temp2;\n            for(uint i=0;i<req.opened.length;i++) {\n                temp2 = req.opened[i];\n                req.opened[i] = temp;\n                temp = temp2;\n            }\n            req.opened.push(temp);\n        } else {\n            for(uint i=1; i<req.opened.length; i++) {\n                if (asking_price < req.opened[i].price && asking_price > req.opened[i].price) {\n                    OpenedResponse memory temp = ask;\n                    OpenedResponse memory temp2;\n                    for(uint j=i;j<req.opened.length;j++) {\n                        temp2 = req.opened[j];\n                        req.opened[j] = temp;\n                        temp = temp2;\n                    }\n                    break;\n                }\n            }\n        }\n    }\n\n    function view_intermediate_hash1(bytes memory y1, bytes memory y2) public pure returns (bytes32) {\n        return keccak256(abi.encodePacked(y1,y2));\n    }\n\n    function view_intermediate_hash2_3(bytes memory y, bytes memory pi, bytes memory q) public pure returns (bytes32) {\n        return keccak256(abi.encodePacked(y,pi,q));\n    }\n\n    // Open_id is the index of this opened request in Request::opened, which should freeze after asking_time\n    // TODO: If the (k+1)th price is larger than p/k, pay p/k\n    function Claim(uint256 req_id, uint256 open_id) public {\n        Request storage req = active_puzzles[req_id];\n        require(req.client != address(0));\n        require(block.number > req.asking_time);\n        require(block.number <= req.refund_time);\n\n        OpenedResponse memory resp = req.opened[open_id]; \n        ClosedResponse memory closed = req.closed[msg.sender];\n        require(closed.data == resp.data);\n        require(closed.data != bytes32(0));\n        // By now, we have checked that the asking price is correct, and that there are no complaints\n\n        // Now, pay the solver\n        // Did the solver win?\n        uint256 min_to_pay = req.solution_collateral;\n        if (open_id < req.k) {\n            // If the solver won\n            uint256 more_to_pay;\n            if (req.opened.length < req.k ) {\n                more_to_pay = req.opened[req.opened.length-1].price;\n            } else {\n                more_to_pay = req.opened[req.k-1].price;\n            }\n            if (more_to_pay > (req.p/req.k)) {\n                more_to_pay = req.p/req.k;\n            }\n            min_to_pay += more_to_pay;\n        }\n        bank[msg.sender] -= min_to_pay;\n        req.money_left -= min_to_pay;\n        payable(msg.sender).transfer(min_to_pay);\n        // To prevent replays of claim from the same winner\n        delete req.opened[open_id];\n        delete req.closed[msg.sender];\n    }\n\n    function Refund(uint256 req_id) public {\n        Request storage req = active_puzzles[req_id];\n        require(req.client == msg.sender, \"Invalid sender\");\n        require(block.number > req.refund_time, \"Not a time to refund yet\");\n\n        payable(msg.sender).transfer(req.money_left);\n        delete active_puzzles[req_id];\n    }\n\n    // Complain that ell is not correct\n    function Complaint_ell(uint256 req_id, bytes32 hash2, bytes32 hash3, bytes memory y1,bytes memory y2, address addr_bad) public {\n        Request storage req = active_puzzles[req_id];\n        require(req.client != address(0));\n        require(block.number <= req.complaint_time);\n        \n        ClosedResponse storage resp = req.closed[addr_bad];\n        bytes32 hash1 = keccak256(abi.encodePacked(y1,y2));\n        bytes32 hash = keccak256(abi.encodePacked(hash1, hash2, hash3, addr_bad));\n        require(hash == resp.data, \"Invalid hashes given\");\n        bytes memory b_addr = toBytes(addr_bad);\n        bytes memory x2 = toBytes(hash_x2(req.g, b_addr));\n        uint256 p = hashToPrime_os(req.g, x2, y1, y2, resp.nonce, b_addr);\n        require(p != resp.ell && p+1 != resp.ell, \"The solver was correct\"); \n        //(ell, nonce, ), \"hash to prime check failed\");\n        delete req.closed[addr_bad];\n        bank[addr_bad] -= req.solution_collateral;\n        payable(msg.sender).transfer(req.solution_collateral);\n        // If we reach this step, the complaint was correct\n    }\n\n    function Complaint_ell_not_prime(uint256 req_id, address addr_bad) public {\n        Request storage req = active_puzzles[req_id];\n        require(req.client != address(0));\n        require(block.number <= req.complaint_time);\n        \n        ClosedResponse storage resp = req.closed[addr_bad];\n\n        if(!millerRabinPrimalityTest(resp.ell)) {\n            //(ell, nonce, ), \"hash to prime check failed\");\n            delete req.closed[addr_bad];\n            bank[addr_bad] -= req.solution_collateral;\n            payable(msg.sender).transfer(req.solution_collateral);\n        }        \n    }\n\n    function Complaint_invalid_left_proof(uint256 req_id, bytes32 hash1, bytes32 hash3, bytes memory y1, bytes memory pi1, bytes memory q1, address addr_bad) public {\n        Request storage req = active_puzzles[req_id];\n        require(req.client != address(0));\n        require(block.number <= req.complaint_time);\n        \n        ClosedResponse storage resp = req.closed[addr_bad];\n        bytes32 hash2 = keccak256(abi.encodePacked(y1,pi1,q1));\n        bytes32 hash = keccak256(abi.encodePacked(hash1, hash2, hash3,addr_bad));\n        require(hash == resp.data);\n        uint256 r = modexp(2, req.T, resp.ell);\n        bytes memory u1 = modexp(pi1, resp.ell);\n        bytes memory u2 = modexp(req.g, r);\n\n        require(mulModEqual(u1, u2, y1, q1), \"The solver was correct\");\n        \n        delete req.closed[addr_bad];\n        bank[addr_bad] -= req.solution_collateral;\n        payable(msg.sender).transfer(req.solution_collateral);\n    }\n\n    function complain_invalid_right_proof(uint256 req_id, bytes32 hash1, bytes32 hash2, bytes memory y2, bytes memory pi2, bytes memory q2, address addr_bad) public {\n        Request storage req = active_puzzles[req_id];\n        require(req.client != address(0));\n        require(block.number <= req.complaint_time);\n        \n        ClosedResponse storage resp = req.closed[addr_bad];\n        bytes32 hash3 = keccak256(abi.encodePacked(y2,pi2,q2));\n        bytes32 hash = keccak256(abi.encodePacked(hash1, hash2, hash3,addr_bad));\n        require(hash == resp.data);\n        uint256 r = modexp(2, req.T, resp.ell);\n        bytes memory u1 = modexp(pi2, resp.ell);\n        bytes memory b_addr = toBytes(addr_bad);\n        bytes memory x2 = toBytes(hash_x2(req.g, b_addr));\n        bytes memory u2 = modexp(x2, r);\n        if(!mulModEqual(u1, u2, y2, q2)) {\n            delete req.closed[addr_bad];\n            bank[addr_bad] -= req.solution_collateral;\n            payable(msg.sender).transfer(req.solution_collateral);\n        }\n    }\n\n   \n    function toBytes(address a) public pure returns (bytes memory b){\n    assembly {\n        let m := mload(0x40)\n        a := and(a, 0xFFFFFFFFFFFFFFFFFFFFFFFFFFFFFFFFFFFFFFFF)\n        mstore(add(m, 20), xor(0x140000000000000000000000000000000000000000, a))\n        mstore(0x40, add(m, 52))\n        b := m\n       }\n    }\n\n    function toBytes(uint256 x) public pure returns (bytes memory b) {\n        b = new bytes(32);\n        assembly { mstore(add(b, 32), x) }\n    }\n\n}",
  "sourcePath": "/run/media/haxolotl/Backup/GitRoot/VDF/deploy-test/contracts/OpenSquare.sol",
  "compiler": {
    "name": "solc",
    "version": "0.7.3+commit.9bfce1f6.Emscripten.clang"
  },
  "schemaVersion": "3.4.0",
  "updatedAt": "2021-05-07T00:23:26.067Z",
  "networkType": "ethereum",
  "devdoc": {
    "kind": "dev",
    "methods": {},
    "title": "Voting with delegation.",
    "version": 1
  },
  "userdoc": {
    "kind": "user",
    "methods": {},
    "version": 1
  }
}