{
  "contractName": "Test",
  "abi": [
    {
      "inputs": [
        {
          "internalType": "bytes",
          "name": "g",
          "type": "bytes"
        },
        {
          "internalType": "bytes",
          "name": "pi",
          "type": "bytes"
        },
        {
          "internalType": "bytes",
          "name": "y",
          "type": "bytes"
        },
        {
          "internalType": "bytes",
          "name": "q",
          "type": "bytes"
        },
        {
          "internalType": "bytes",
          "name": "dst",
          "type": "bytes"
        },
        {
          "internalType": "uint256",
          "name": "nonce",
          "type": "uint256"
        },
        {
          "internalType": "uint256",
          "name": "delay",
          "type": "uint256"
        }
      ],
      "name": "verify",
      "outputs": [
        {
          "internalType": "bool",
          "name": "",
          "type": "bool"
        }
      ],
      "stateMutability": "view",
      "type": "function"
    },
    {
      "inputs": [
        {
          "internalType": "bytes",
          "name": "e",
          "type": "bytes"
        }
      ],
      "name": "testValidateGroupElement",
      "outputs": [
        {
          "internalType": "bool",
          "name": "",
          "type": "bool"
        }
      ],
      "stateMutability": "view",
      "type": "function"
    },
    {
      "inputs": [
        {
          "internalType": "bytes",
          "name": "e",
          "type": "bytes"
        }
      ],
      "name": "testIsZeroGroupElement",
      "outputs": [
        {
          "internalType": "bool",
          "name": "",
          "type": "bool"
        }
      ],
      "stateMutability": "pure",
      "type": "function"
    },
    {
      "inputs": [
        {
          "internalType": "bytes",
          "name": "a",
          "type": "bytes"
        },
        {
          "internalType": "bytes",
          "name": "b",
          "type": "bytes"
        }
      ],
      "name": "testEqualNumber",
      "outputs": [
        {
          "internalType": "bool",
          "name": "",
          "type": "bool"
        }
      ],
      "stateMutability": "pure",
      "type": "function"
    },
    {
      "inputs": [
        {
          "internalType": "bytes",
          "name": "g",
          "type": "bytes"
        },
        {
          "internalType": "bytes",
          "name": "y",
          "type": "bytes"
        },
        {
          "internalType": "uint256",
          "name": "nonce",
          "type": "uint256"
        },
        {
          "internalType": "bytes",
          "name": "dst",
          "type": "bytes"
        }
      ],
      "name": "testHashToPrime",
      "outputs": [
        {
          "internalType": "uint256",
          "name": "",
          "type": "uint256"
        }
      ],
      "stateMutability": "pure",
      "type": "function"
    },
    {
      "inputs": [
        {
          "internalType": "bytes",
          "name": "g",
          "type": "bytes"
        },
        {
          "internalType": "bytes",
          "name": "pi",
          "type": "bytes"
        },
        {
          "internalType": "bytes",
          "name": "y",
          "type": "bytes"
        },
        {
          "internalType": "bytes",
          "name": "q",
          "type": "bytes"
        },
        {
          "internalType": "bytes",
          "name": "dst",
          "type": "bytes"
        },
        {
          "internalType": "uint256",
          "name": "nonce",
          "type": "uint256"
        },
        {
          "internalType": "uint256",
          "name": "delay",
          "type": "uint256"
        }
      ],
      "name": "gasCostVerify",
      "outputs": [
        {
          "internalType": "uint256",
          "name": "",
          "type": "uint256"
        }
      ],
      "stateMutability": "nonpayable",
      "type": "function"
    },
    {
      "inputs": [
        {
          "internalType": "uint256",
          "name": "n",
          "type": "uint256"
        }
      ],
      "name": "gasCostMillerRabinPrimalityTest",
      "outputs": [
        {
          "internalType": "uint256",
          "name": "",
          "type": "uint256"
        }
      ],
      "stateMutability": "view",
      "type": "function"
    },
    {
      "inputs": [
        {
          "internalType": "bytes",
          "name": "a",
          "type": "bytes"
        },
        {
          "internalType": "bytes",
          "name": "b",
          "type": "bytes"
        }
      ],
      "name": "gasCostEqualNumber",
      "outputs": [
        {
          "internalType": "uint256",
          "name": "",
          "type": "uint256"
        }
      ],
      "stateMutability": "nonpayable",
      "type": "function"
    },
    {
      "inputs": [
        {
          "internalType": "bytes",
          "name": "a",
          "type": "bytes"
        },
        {
          "internalType": "bytes",
          "name": "b",
          "type": "bytes"
        },
        {
          "internalType": "bytes",
          "name": "y",
          "type": "bytes"
        },
        {
          "internalType": "bytes",
          "name": "q",
          "type": "bytes"
        }
      ],
      "name": "testMulModEqual",
      "outputs": [
        {
          "internalType": "bool",
          "name": "",
          "type": "bool"
        }
      ],
      "stateMutability": "view",
      "type": "function"
    },
    {
      "inputs": [
        {
          "internalType": "bytes",
          "name": "a",
          "type": "bytes"
        },
        {
          "internalType": "bytes",
          "name": "b",
          "type": "bytes"
        },
        {
          "internalType": "bytes",
          "name": "y",
          "type": "bytes"
        },
        {
          "internalType": "bytes",
          "name": "q",
          "type": "bytes"
        }
      ],
      "name": "gasCostMulModEqual",
      "outputs": [
        {
          "internalType": "uint256",
          "name": "",
          "type": "uint256"
        }
      ],
      "stateMutability": "nonpayable",
      "type": "function"
    },
    {
      "inputs": [
        {
          "internalType": "bytes",
          "name": "a",
          "type": "bytes"
        },
        {
          "internalType": "bytes",
          "name": "b",
          "type": "bytes"
        }
      ],
      "name": "testAdd2048to4096",
      "outputs": [
        {
          "internalType": "bytes",
          "name": "",
          "type": "bytes"
        }
      ],
      "stateMutability": "pure",
      "type": "function"
    },
    {
      "inputs": [
        {
          "internalType": "bytes",
          "name": "a",
          "type": "bytes"
        },
        {
          "internalType": "bytes",
          "name": "b",
          "type": "bytes"
        }
      ],
      "name": "gasCostAdd2048to4096",
      "outputs": [
        {
          "internalType": "uint256",
          "name": "",
          "type": "uint256"
        }
      ],
      "stateMutability": "nonpayable",
      "type": "function"
    },
    {
      "inputs": [
        {
          "internalType": "bytes",
          "name": "a",
          "type": "bytes"
        },
        {
          "internalType": "bytes",
          "name": "b",
          "type": "bytes"
        }
      ],
      "name": "testMul2048",
      "outputs": [
        {
          "internalType": "bytes",
          "name": "",
          "type": "bytes"
        }
      ],
      "stateMutability": "pure",
      "type": "function"
    },
    {
      "inputs": [
        {
          "internalType": "bytes",
          "name": "a",
          "type": "bytes"
        },
        {
          "internalType": "bytes",
          "name": "b",
          "type": "bytes"
        }
      ],
      "name": "gasCostMul2048",
      "outputs": [
        {
          "internalType": "uint256",
          "name": "",
          "type": "uint256"
        }
      ],
      "stateMutability": "nonpayable",
      "type": "function"
    },
    {
      "inputs": [
        {
          "internalType": "bytes",
          "name": "base",
          "type": "bytes"
        },
        {
          "internalType": "uint256",
          "name": "exponent",
          "type": "uint256"
        }
      ],
      "name": "testModExp",
      "outputs": [
        {
          "internalType": "bytes",
          "name": "",
          "type": "bytes"
        }
      ],
      "stateMutability": "view",
      "type": "function"
    },
    {
      "inputs": [
        {
          "internalType": "bytes",
          "name": "base",
          "type": "bytes"
        },
        {
          "internalType": "uint256",
          "name": "exponent",
          "type": "uint256"
        }
      ],
      "name": "gasCostModExp",
      "outputs": [
        {
          "internalType": "uint256",
          "name": "",
          "type": "uint256"
        }
      ],
      "stateMutability": "nonpayable",
      "type": "function"
    },
    {
      "inputs": [
        {
          "internalType": "uint256",
          "name": "base",
          "type": "uint256"
        },
        {
          "internalType": "uint256",
          "name": "exponent",
          "type": "uint256"
        },
        {
          "internalType": "uint256",
          "name": "modulus",
          "type": "uint256"
        }
      ],
      "name": "testModExp256",
      "outputs": [
        {
          "internalType": "uint256",
          "name": "",
          "type": "uint256"
        }
      ],
      "stateMutability": "view",
      "type": "function"
    },
    {
      "inputs": [
        {
          "internalType": "uint256",
          "name": "base",
          "type": "uint256"
        },
        {
          "internalType": "uint256",
          "name": "exponent",
          "type": "uint256"
        },
        {
          "internalType": "uint256",
          "name": "modulus",
          "type": "uint256"
        }
      ],
      "name": "gasCostModExp256",
      "outputs": [
        {
          "internalType": "uint256",
          "name": "",
          "type": "uint256"
        }
      ],
      "stateMutability": "nonpayable",
      "type": "function"
    }
  ],
  "bytecode": "0x608060405260405180610120016040528061010081526020016200302f610100913960009080519060200190620000389291906200004d565b503480156200004657600080fd5b50620000f3565b828054600181600116156101000203166002900490600052602060002090601f016020900481019282601f106200009057805160ff1916838001178555620000c1565b82800160010185558215620000c1579182015b82811115620000c0578251825591602001919060010190620000a3565b5b509050620000d09190620000d4565b5090565b5b80821115620000ef576000816000905550600101620000d5565b5090565b612f2c80620001036000396000f3fe608060405234801561001057600080fd5b50600436106101165760003560e01c80638993f607116100a2578063c6fb6e4b11610071578063c6fb6e4b146113ea578063c9c40d431461142c578063d505e2d81461176b578063d765d4b0146118d1578063e7b4226f14611a9c57610116565b80638993f60714610db95780639d6cceb314610f1f578063ba10b96a14611085578063bedd00901461115657610116565b806346ba3ed8116100e957806346ba3ed8146106d35780634c16e7e6146107ac5780634d294ada1461091457806370707e86146109e55780637d18485914610b2357610116565b8063126cc88c1461011b5780631eceb577146101715780632d082f83146101c757806341db80dc14610392575b600080fd5b61015b6004803603606081101561013157600080fd5b81019080803590602001909291908035906020019092919080359060200190929190505050611ca3565b6040518082815260200191505060405180910390f35b6101b16004803603606081101561018757600080fd5b81019080803590602001909291908035906020019092919080359060200190929190505050611cc2565b6040518082815260200191505060405180910390f35b610317600480360360408110156101dd57600080fd5b81019080803590602001906401000000008111156101fa57600080fd5b82018360208201111561020c57600080fd5b8035906020019184600183028401116401000000008311171561022e57600080fd5b91908080601f016020809104026020016040519081016040528093929190818152602001838380828437600081840152601f19601f8201169050808301925050505050505091929192908035906020019064010000000081111561029157600080fd5b8201836020820111156102a357600080fd5b803590602001918460018302840111640100000000831117156102c557600080fd5b91908080601f016020809104026020016040519081016040528093929190818152602001838380828437600081840152601f19601f820116905080830192505050505050509192919290505050611cd8565b6040518080602001828103825283818151815260200191508051906020019080838360005b8381101561035757808201518184015260208101905061033c565b50505050905090810190601f1680156103845780820380516001836020036101000a031916815260200191505b509250505060405180910390f35b6106bb600480360360e08110156103a857600080fd5b81019080803590602001906401000000008111156103c557600080fd5b8201836020820111156103d757600080fd5b803590602001918460018302840111640100000000831117156103f957600080fd5b91908080601f016020809104026020016040519081016040528093929190818152602001838380828437600081840152601f19601f8201169050808301925050505050505091929192908035906020019064010000000081111561045c57600080fd5b82018360208201111561046e57600080fd5b8035906020019184600183028401116401000000008311171561049057600080fd5b91908080601f016020809104026020016040519081016040528093929190818152602001838380828437600081840152601f19601f820116905080830192505050505050509192919290803590602001906401000000008111156104f357600080fd5b82018360208201111561050557600080fd5b8035906020019184600183028401116401000000008311171561052757600080fd5b91908080601f016020809104026020016040519081016040528093929190818152602001838380828437600081840152601f19601f8201169050808301925050505050505091929192908035906020019064010000000081111561058a57600080fd5b82018360208201111561059c57600080fd5b803590602001918460018302840111640100000000831117156105be57600080fd5b91908080601f016020809104026020016040519081016040528093929190818152602001838380828437600081840152601f19601f8201169050808301925050505050505091929192908035906020019064010000000081111561062157600080fd5b82018360208201111561063357600080fd5b8035906020019184600183028401116401000000008311171561065557600080fd5b91908080601f016020809104026020016040519081016040528093929190818152602001838380828437600081840152601f19601f8201169050808301925050505050505091929192908035906020019092919080359060200190929190505050611cec565b60405180821515815260200191505060405180910390f35b610796600480360360408110156106e957600080fd5b810190808035906020019064010000000081111561070657600080fd5b82018360208201111561071857600080fd5b8035906020019184600183028401116401000000008311171561073a57600080fd5b91908080601f016020809104026020016040519081016040528093929190818152602001838380828437600081840152601f19601f82011690508083019250505050505050919291929080359060200190929190505050612224565b6040518082815260200191505060405180910390f35b6108fc600480360360408110156107c257600080fd5b81019080803590602001906401000000008111156107df57600080fd5b8201836020820111156107f157600080fd5b8035906020019184600183028401116401000000008311171561081357600080fd5b91908080601f016020809104026020016040519081016040528093929190818152602001838380828437600081840152601f19601f8201169050808301925050505050505091929192908035906020019064010000000081111561087657600080fd5b82018360208201111561088857600080fd5b803590602001918460018302840111640100000000831117156108aa57600080fd5b91908080601f016020809104026020016040519081016040528093929190818152602001838380828437600081840152601f19601f820116905080830192505050505050509192919290505050612241565b60405180821515815260200191505060405180910390f35b6109cd6004803603602081101561092a57600080fd5b810190808035906020019064010000000081111561094757600080fd5b82018360208201111561095957600080fd5b8035906020019184600183028401116401000000008311171561097b57600080fd5b91908080601f016020809104026020016040519081016040528093929190818152602001838380828437600081840152601f19601f820116905080830192505050505050509192919290505050612255565b60405180821515815260200191505060405180910390f35b610aa8600480360360408110156109fb57600080fd5b8101908080359060200190640100000000811115610a1857600080fd5b820183602082011115610a2a57600080fd5b80359060200191846001830284011164010000000083111715610a4c57600080fd5b91908080601f016020809104026020016040519081016040528093929190818152602001838380828437600081840152601f19601f82011690508083019250505050505050919291929080359060200190929190505050612267565b6040518080602001828103825283818151815260200191508051906020019080838360005b83811015610ae8578082015181840152602081019050610acd565b50505050905090810190601f168015610b155780820380516001836020036101000a031916815260200191505b509250505060405180910390f35b610da160048036036080811015610b3957600080fd5b8101908080359060200190640100000000811115610b5657600080fd5b820183602082011115610b6857600080fd5b80359060200191846001830284011164010000000083111715610b8a57600080fd5b91908080601f016020809104026020016040519081016040528093929190818152602001838380828437600081840152601f19601f82011690508083019250505050505050919291929080359060200190640100000000811115610bed57600080fd5b820183602082011115610bff57600080fd5b80359060200191846001830284011164010000000083111715610c2157600080fd5b91908080601f016020809104026020016040519081016040528093929190818152602001838380828437600081840152601f19601f82011690508083019250505050505050919291929080359060200190640100000000811115610c8457600080fd5b820183602082011115610c9657600080fd5b80359060200191846001830284011164010000000083111715610cb857600080fd5b91908080601f016020809104026020016040519081016040528093929190818152602001838380828437600081840152601f19601f82011690508083019250505050505050919291929080359060200190640100000000811115610d1b57600080fd5b820183602082011115610d2d57600080fd5b80359060200191846001830284011164010000000083111715610d4f57600080fd5b91908080601f016020809104026020016040519081016040528093929190818152602001838380828437600081840152601f19601f82011690508083019250505050505050919291929050505061227b565b60405180821515815260200191505060405180910390f35b610f0960048036036040811015610dcf57600080fd5b8101908080359060200190640100000000811115610dec57600080fd5b820183602082011115610dfe57600080fd5b80359060200191846001830284011164010000000083111715610e2057600080fd5b91908080601f016020809104026020016040519081016040528093929190818152602001838380828437600081840152601f19601f82011690508083019250505050505050919291929080359060200190640100000000811115610e8357600080fd5b820183602082011115610e9557600080fd5b80359060200191846001830284011164010000000083111715610eb757600080fd5b91908080601f016020809104026020016040519081016040528093929190818152602001838380828437600081840152601f19601f820116905080830192505050505050509192919290505050612293565b6040518082815260200191505060405180910390f35b61106f60048036036040811015610f3557600080fd5b8101908080359060200190640100000000811115610f5257600080fd5b820183602082011115610f6457600080fd5b80359060200191846001830284011164010000000083111715610f8657600080fd5b91908080601f016020809104026020016040519081016040528093929190818152602001838380828437600081840152601f19601f82011690508083019250505050505050919291929080359060200190640100000000811115610fe957600080fd5b820183602082011115610ffb57600080fd5b8035906020019184600183028401116401000000008311171561101d57600080fd5b91908080601f016020809104026020016040519081016040528093929190818152602001838380828437600081840152601f19601f8201169050808301925050505050505091929192905050506122b0565b6040518082815260200191505060405180910390f35b61113e6004803603602081101561109b57600080fd5b81019080803590602001906401000000008111156110b857600080fd5b8201836020820111156110ca57600080fd5b803590602001918460018302840111640100000000831117156110ec57600080fd5b91908080601f016020809104026020016040519081016040528093929190818152602001838380828437600081840152601f19601f8201169050808301925050505050505091929192905050506122cc565b60405180821515815260200191505060405180910390f35b6113d46004803603608081101561116c57600080fd5b810190808035906020019064010000000081111561118957600080fd5b82018360208201111561119b57600080fd5b803590602001918460018302840111640100000000831117156111bd57600080fd5b91908080601f016020809104026020016040519081016040528093929190818152602001838380828437600081840152601f19601f8201169050808301925050505050505091929192908035906020019064010000000081111561122057600080fd5b82018360208201111561123257600080fd5b8035906020019184600183028401116401000000008311171561125457600080fd5b91908080601f016020809104026020016040519081016040528093929190818152602001838380828437600081840152601f19601f820116905080830192505050505050509192919290803590602001906401000000008111156112b757600080fd5b8201836020820111156112c957600080fd5b803590602001918460018302840111640100000000831117156112eb57600080fd5b91908080601f016020809104026020016040519081016040528093929190818152602001838380828437600081840152601f19601f8201169050808301925050505050505091929192908035906020019064010000000081111561134e57600080fd5b82018360208201111561136057600080fd5b8035906020019184600183028401116401000000008311171561138257600080fd5b91908080601f016020809104026020016040519081016040528093929190818152602001838380828437600081840152601f19601f8201169050808301925050505050505091929192905050506122de565b6040518082815260200191505060405180910390f35b6114166004803603602081101561140057600080fd5b81019080803590602001909291905050506122ff565b6040518082815260200191505060405180910390f35b611755600480360360e081101561144257600080fd5b810190808035906020019064010000000081111561145f57600080fd5b82018360208201111561147157600080fd5b8035906020019184600183028401116401000000008311171561149357600080fd5b91908080601f016020809104026020016040519081016040528093929190818152602001838380828437600081840152601f19601f820116905080830192505050505050509192919290803590602001906401000000008111156114f657600080fd5b82018360208201111561150857600080fd5b8035906020019184600183028401116401000000008311171561152a57600080fd5b91908080601f016020809104026020016040519081016040528093929190818152602001838380828437600081840152601f19601f8201169050808301925050505050505091929192908035906020019064010000000081111561158d57600080fd5b82018360208201111561159f57600080fd5b803590602001918460018302840111640100000000831117156115c157600080fd5b91908080601f016020809104026020016040519081016040528093929190818152602001838380828437600081840152601f19601f8201169050808301925050505050505091929192908035906020019064010000000081111561162457600080fd5b82018360208201111561163657600080fd5b8035906020019184600183028401116401000000008311171561165857600080fd5b91908080601f016020809104026020016040519081016040528093929190818152602001838380828437600081840152601f19601f820116905080830192505050505050509192919290803590602001906401000000008111156116bb57600080fd5b8201836020820111156116cd57600080fd5b803590602001918460018302840111640100000000831117156116ef57600080fd5b91908080601f016020809104026020016040519081016040528093929190818152602001838380828437600081840152601f19601f820116905080830192505050505050509192919290803590602001909291908035906020019092919050505061238b565b6040518082815260200191505060405180910390f35b6118bb6004803603604081101561178157600080fd5b810190808035906020019064010000000081111561179e57600080fd5b8201836020820111156117b057600080fd5b803590602001918460018302840111640100000000831117156117d257600080fd5b91908080601f016020809104026020016040519081016040528093929190818152602001838380828437600081840152601f19601f8201169050808301925050505050505091929192908035906020019064010000000081111561183557600080fd5b82018360208201111561184757600080fd5b8035906020019184600183028401116401000000008311171561186957600080fd5b91908080601f016020809104026020016040519081016040528093929190818152602001838380828437600081840152601f19601f8201169050808301925050505050505091929192905050506123b2565b6040518082815260200191505060405180910390f35b611a21600480360360408110156118e757600080fd5b810190808035906020019064010000000081111561190457600080fd5b82018360208201111561191657600080fd5b8035906020019184600183028401116401000000008311171561193857600080fd5b91908080601f016020809104026020016040519081016040528093929190818152602001838380828437600081840152601f19601f8201169050808301925050505050505091929192908035906020019064010000000081111561199b57600080fd5b8201836020820111156119ad57600080fd5b803590602001918460018302840111640100000000831117156119cf57600080fd5b91908080601f016020809104026020016040519081016040528093929190818152602001838380828437600081840152601f19601f8201169050808301925050505050505091929192905050506123cf565b6040518080602001828103825283818151815260200191508051906020019080838360005b83811015611a61578082015181840152602081019050611a46565b50505050905090810190601f168015611a8e5780820380516001836020036101000a031916815260200191505b509250505060405180910390f35b611c8d60048036036080811015611ab257600080fd5b8101908080359060200190640100000000811115611acf57600080fd5b820183602082011115611ae157600080fd5b80359060200191846001830284011164010000000083111715611b0357600080fd5b91908080601f016020809104026020016040519081016040528093929190818152602001838380828437600081840152601f19601f82011690508083019250505050505050919291929080359060200190640100000000811115611b6657600080fd5b820183602082011115611b7857600080fd5b80359060200191846001830284011164010000000083111715611b9a57600080fd5b91908080601f016020809104026020016040519081016040528093929190818152602001838380828437600081840152601f19601f8201169050808301925050505050505091929192908035906020019092919080359060200190640100000000811115611c0757600080fd5b820183602082011115611c1957600080fd5b80359060200191846001830284011164010000000083111715611c3b57600080fd5b91908080601f016020809104026020016040519081016040528093929190818152602001838380828437600081840152601f19601f8201169050808301925050505050505091929192905050506123e4565b6040518082815260200191505060405180910390f35b6000805a9050611cb48585856123fc565b505a81039150509392505050565b6000611ccf8484846123fc565b90509392505050565b6060611ce48383612453565b905092915050565b6000611cf7836125b5565b611d69576040517f08c379a000000000000000000000000000000000000000000000000000000000815260040180806020018281038252600d8152602001807f696e76616c6964206e6f6e63650000000000000000000000000000000000000081525060200191505060405180910390fd5b611d72886125c4565b611de4576040517f08c379a00000000000000000000000000000000000000000000000000000000081526004018080602001828103825260188152602001807f696e76616c69642067726f757020656c656d656e743a2067000000000000000081525060200191505060405180910390fd5b611ded88612862565b15611e60576040517f08c379a00000000000000000000000000000000000000000000000000000000081526004018080602001828103825260158152602001807f7a65726f2067726f757020656c656d656e743a2067000000000000000000000081525060200191505060405180910390fd5b611e69876125c4565b611edb576040517f08c379a00000000000000000000000000000000000000000000000000000000081526004018080602001828103825260198152602001807f696e76616c69642067726f757020656c656d656e743a2070690000000000000081525060200191505060405180910390fd5b611ee487612862565b15611f57576040517f08c379a00000000000000000000000000000000000000000000000000000000081526004018080602001828103825260168152602001807f7a65726f2067726f757020656c656d656e743a2070690000000000000000000081525060200191505060405180910390fd5b611f60866125c4565b611fd2576040517f08c379a00000000000000000000000000000000000000000000000000000000081526004018080602001828103825260188152602001807f696e76616c69642067726f757020656c656d656e743a2079000000000000000081525060200191505060405180910390fd5b611fdb86612862565b1561204e576040517f08c379a00000000000000000000000000000000000000000000000000000000081526004018080602001828103825260158152602001807f7a65726f2067726f757020656c656d656e743a2079000000000000000000000081525060200191505060405180910390fd5b612057856125c4565b6120c9576040517f08c379a000000000000000000000000000000000000000000000000000000000815260040180806020018281038252601f8152602001807f696e76616c69642067726f757020656c656d656e743a2068656c70657220710081525060200191505060405180910390fd5b60006120d7898886886128a5565b905060006001821614156120ec576001810190505b6120f5816129d4565b612167576040517f08c379a00000000000000000000000000000000000000000000000000000000081526004018080602001828103825260138152602001807f6e6f6e207072696d65206368616c6c656e67650000000000000000000000000081525060200191505060405180910390fd5b6000612175600285846123fc565b905060606121838a84612b1a565b905060606121918c84612b1a565b905061219f82828c8c612cff565b612211576040517f08c379a00000000000000000000000000000000000000000000000000000000081526004018080602001828103825260138152602001807f766572696669636174696f6e206661696c65640000000000000000000000000081525060200191505060405180910390fd5b6001945050505050979650505050505050565b6000805a90506122348484612b1a565b505a810391505092915050565b600061224d8383612dd7565b905092915050565b600061226082612862565b9050919050565b60606122738383612b1a565b905092915050565b600061228985858585612cff565b9050949350505050565b6000805a90506122a38484612453565b505a810391505092915050565b6000805a90506122c08484612e5b565b5a810391505092915050565b60006122d7826125c4565b9050919050565b6000805a90506122f086868686612cff565b505a8103915050949350505050565b6000805a905061230e836129d4565b612380576040517f08c379a00000000000000000000000000000000000000000000000000000000081526004018080602001828103825260138152602001807f72756e20697420776974682061207072696d650000000000000000000000000081525060200191505060405180910390fd5b5a8103915050919050565b6000805a90506123a089898989898989611cec565b505a8103915050979650505050505050565b6000805a90506123c28484612dd7565b505a810391505092915050565b60606123db8383612e5b565b82905092915050565b60006123f2858585856128a5565b9050949350505050565b600060405160208152602080820152602060408201528460608201528360808201528260a082015260208160c08360056107d05a03fa806000811461244057612445565b600080fd5b508151925050509392505050565b60606040516102008152610240810160405260001960008060008060006101008a01519050610100890151945085858209915084810294508482108583030393508461020088015260e05b60008111156124e157808a01519550868683099250858202955085831086840303935084860195508486108401945085610100820189015260208103905061249e565b508387610100015260e05b600081111561259e578460208983010152808b015191506101008a0151955086868309925085820295508583108684030394506101008101880192508251935083860195508386108501945085835260e05b600081111561259257808b015196508787840993508683029650868410878503039450858701965085871085019450818101890193508351955085870196508587108501955086845260208103905061253e565b506020810390506124ec565b508387602001528697505050505050505092915050565b60006201000082109050919050565b60006101008251146125d9576000905061285d565b6001905060208201517fc7970ceedcc3b0754490201a7aa613cd73911081c790f5f1a8726f463550bb5b811091507fc7970ceedcc3b0754490201a7aa613cd73911081c790f5f1a8726f463550bb5b81141561285b57604083015190507f7ff0db8e1ea1189ec72f93d1650011bd721aeeacc2acde32a04107f0648c2813811091507f7ff0db8e1ea1189ec72f93d1650011bd721aeeacc2acde32a04107f0648c281381141561285a57606083015190507fa31f5b0b7765ff8b44b4b6ffc93384b646eb09c7cf5e8592d40ea33c80039f35811091507fa31f5b0b7765ff8b44b4b6ffc93384b646eb09c7cf5e8592d40ea33c80039f3581141561285957608083015190507fb4f14a04b51f7bfd781be4d1673164ba8eb991c2c4d730bbbe35f592bdef524a811091507fb4f14a04b51f7bfd781be4d1673164ba8eb991c2c4d730bbbe35f592bdef524a8114156128585760a083015190507ff7e8daefd26c66fc02c479af89d64d373f442709439de66ceb955f3ea37d5159811091507ff7e8daefd26c66fc02c479af89d64d373f442709439de66ceb955f3ea37d51598114156128575760c083015190507ff6135809f85334b5cb1813addc80cd05609f10ac6a95ad65872c909525bdad32811091507ff6135809f85334b5cb1813addc80cd05609f10ac6a95ad65872c909525bdad328114156128565760e083015190507fbc729592642920f24c61dc5b3c3b7923e56b16a4d9d373d8721f24a3fc0f1b31811091507fbc729592642920f24c61dc5b3c3b7923e56b16a4d9d373d8721f24a3fc0f1b318114156128555761010083015190507f31f55615172866bccc30f95054c824e733a5eb6817f7bc16399d48c6361cc7e5811091505b5b5b5b5b5b5b505b919050565b600061010082511461287757600090506128a0565b6001905060205b61010181101561289e57600081840151148216915060208101905061287e565b505b919050565b6000818585856040516020018085805190602001908083835b602083106128e157805182526020820191506020810190506020830392506128be565b6001836020036101000a03801982511681845116808217855250505050505090500184805190602001908083835b60208310612932578051825260208201915060208101905060208303925061290f565b6001836020036101000a03801982511681845116808217855250505050505090500183805190602001908083835b602083106129835780518252602082019150602081019050602083039250612960565b6001836020036101000a0380198251168184511680821785525050505050509050018281526020019450505050506040516020818303038152906040528051906020012060001c9050949350505050565b600060048210156129e85760009050612b15565b60006001831614156129fd5760009050612b15565b600060018303905060005b6000600183161415612a2c5760028281612a1e57fe5b049150600181019050612a08565b60005b600f811015612b0d576000600260038703878460405160200180838152602001828152602001925050506040516020818303038152906040528051906020012060001c81612a7957fe5b060190506000612a8a8286896123fc565b90506001811480612a9d57506001870381145b15612aa9575050612b00565b600080600190505b85811015612ae7578880612ac157fe5b838409925060018903831415612ada5760019150612ae7565b8080600101915050612ab1565b5080612afc5760009650505050505050612b15565b5050505b8080600101915050612a2f565b506001925050505b919050565b6060604051610100815260208082015261010060408201526020840151606082015260408401516080820152606084015160a0820152608084015160c082015260a084015160e082015260c084015161010082015260e0840151610120820152610100840151610140820152826101608201527fc7970ceedcc3b0754490201a7aa613cd73911081c790f5f1a8726f463550bb5b6101808201527f7ff0db8e1ea1189ec72f93d1650011bd721aeeacc2acde32a04107f0648c28136101a08201527fa31f5b0b7765ff8b44b4b6ffc93384b646eb09c7cf5e8592d40ea33c80039f356101c08201527fb4f14a04b51f7bfd781be4d1673164ba8eb991c2c4d730bbbe35f592bdef524a6101e08201527ff7e8daefd26c66fc02c479af89d64d373f442709439de66ceb955f3ea37d51596102008201527ff6135809f85334b5cb1813addc80cd05609f10ac6a95ad65872c909525bdad326102208201527fbc729592642920f24c61dc5b3c3b7923e56b16a4d9d373d8721f24a3fc0f1b316102408201527f31f55615172866bccc30f95054c824e733a5eb6817f7bc16399d48c6361cc7e5610260820152610100602082016102808360056107d05a03fa8060008114612ce657612ceb565b600080fd5b506101208201604052819250505092915050565b60006060612d0d8686612453565b90506060612db58460008054600181600116156101000203166002900480601f016020809104026020016040519081016040528092919081815260200182805460018160011615610100020316600290048015612dab5780601f10612d8057610100808354040283529160200191612dab565b820191906000526020600020905b815481529060010190602001808311612d8e57829003601f168201915b5050505050612453565b9050612dc18186612e5b565b612dcb8282612dd7565b92505050949350505050565b600080835190506000811415612df1576000915050612e55565b600060208281612dfd57fe5b0614612e0d576000915050612e55565b82518114612e1f576000915050612e55565b60006001925060205b60018301811015612e515760018201915080850151818701511484169350602081019050612e28565b5050505b92915050565b610220820161012082016000825182518082019150808210925081855260205b610101811015612ebd57602086039550602085039450855192508451915083830192508383109350818301925081831084019350828652602081019050612e7b565b5060005b6020811015612eec576020860395508551925083830192508383109350828652602081019050612ec1565b505050505050505056fea26469706673582212208275a039eaaa5748f880fcdb8d63515ae2c0801d4323c6724a0e657ba8714d3164736f6c63430007030033c7970ceedcc3b0754490201a7aa613cd73911081c790f5f1a8726f463550bb5b7ff0db8e1ea1189ec72f93d1650011bd721aeeacc2acde32a04107f0648c2813a31f5b0b7765ff8b44b4b6ffc93384b646eb09c7cf5e8592d40ea33c80039f35b4f14a04b51f7bfd781be4d1673164ba8eb991c2c4d730bbbe35f592bdef524af7e8daefd26c66fc02c479af89d64d373f442709439de66ceb955f3ea37d5159f6135809f85334b5cb1813addc80cd05609f10ac6a95ad65872c909525bdad32bc729592642920f24c61dc5b3c3b7923e56b16a4d9d373d8721f24a3fc0f1b3131f55615172866bccc30f95054c824e733a5eb6817f7bc16399d48c6361cc7e5",
  "immutableReferences": {},
  "source": "//SPDX-License-Identifier: Unlicense\npragma solidity >=0.7.3;\n\nimport { VerifyVDF } from \"./VerifyVDF.sol\";\n\ncontract Test is VerifyVDF {\n  function testValidateGroupElement(bytes memory e) external view returns (bool) {\n    return validateGroupElement(e);\n  }\n\n  function testIsZeroGroupElement(bytes memory e) external pure returns (bool) {\n    return isZeroGroupElement(e);\n  }\n\n  function testEqualNumber(bytes memory a, bytes memory b) external pure returns (bool) {\n    return equalNumber(a, b);\n  }\n\n  function testHashToPrime(\n    bytes memory g,\n    bytes memory y,\n    uint256 nonce,\n    bytes memory dst\n  ) external pure returns (uint256) {\n    return hashToPrime(g, y, nonce, dst);\n  }\n\n  // solhint-disable-next-line\n  function gasCostVerify(\n    bytes memory g,\n    bytes memory pi,\n    bytes memory y,\n    bytes memory q,\n    bytes memory dst,\n    uint256 nonce,\n    uint256 delay\n  ) external returns (uint256) {\n    uint256 operationGasCost = gasleft();\n    verify(g, pi, y, q, dst, nonce, delay);\n    return operationGasCost - gasleft();\n  }\n\n  function gasCostMillerRabinPrimalityTest(uint256 n) external view returns (uint256) {\n    uint256 operationGasCost = gasleft();\n    require(millerRabinPrimalityTest(n), \"run it with a prime\");\n    return operationGasCost - gasleft();\n  }\n\n  // solhint-disable-next-line\n  function gasCostEqualNumber(bytes memory a, bytes memory b) external returns (uint256) {\n    uint256 operationGasCost = gasleft();\n    equalNumber(a, b);\n    return operationGasCost - gasleft();\n  }\n\n  function testMulModEqual(\n    bytes memory a,\n    bytes memory b,\n    bytes memory y,\n    bytes memory q\n  ) external view returns (bool) {\n    return mulModEqual(a, b, y, q);\n  }\n\n  // solhint-disable-next-line\n  function gasCostMulModEqual(\n    bytes memory a,\n    bytes memory b,\n    bytes memory y,\n    bytes memory q\n  ) external returns (uint256) {\n    uint256 operationGasCost = gasleft();\n    mulModEqual(a, b, y, q);\n    return operationGasCost - gasleft();\n  }\n\n  function testAdd2048to4096(bytes memory a, bytes memory b) external pure returns (bytes memory) {\n    add2048to4096(a, b);\n    return a;\n  }\n\n  // solhint-disable-next-line\n  function gasCostAdd2048to4096(bytes memory a, bytes memory b) external returns (uint256) {\n    uint256 operationGasCost = gasleft();\n    add2048to4096(a, b);\n    return operationGasCost - gasleft();\n  }\n\n  function testMul2048(bytes memory a, bytes memory b) external pure returns (bytes memory) {\n    return mul2048(a, b);\n  }\n\n  // solhint-disable-next-line\n  function gasCostMul2048(bytes memory a, bytes memory b) external returns (uint256) {\n    uint256 operationGasCost = gasleft();\n    mul2048(a, b);\n    return operationGasCost - gasleft();\n  }\n\n  function testModExp(bytes memory base, uint256 exponent) external view returns (bytes memory) {\n    return modexp(base, exponent);\n  }\n\n  // solhint-disable-next-line\n  function gasCostModExp(bytes memory base, uint256 exponent) external returns (uint256) {\n    uint256 operationGasCost = gasleft();\n    modexp(base, exponent);\n    return operationGasCost - gasleft();\n  }\n\n  function testModExp256(\n    uint256 base,\n    uint256 exponent,\n    uint256 modulus\n  ) external view returns (uint256) {\n    return modexp(base, exponent, modulus);\n  }\n\n  // solhint-disable-next-line\n  function gasCostModExp256(\n    uint256 base,\n    uint256 exponent,\n    uint256 modulus\n  ) external returns (uint256) {\n    uint256 operationGasCost = gasleft();\n    modexp(base, exponent, modulus);\n    return operationGasCost - gasleft();\n  }\n}\n",
  "sourcePath": "/run/media/haxolotl/Backup/GitRoot/VDF/deploy-test/contracts/Test.sol",
  "compiler": {
    "name": "solc",
    "version": "0.7.3+commit.9bfce1f6.Emscripten.clang"
  },
  "schemaVersion": "3.4.0",
  "updatedAt": "2021-05-07T00:22:22.006Z",
  "devdoc": {
    "kind": "dev",
    "methods": {},
    "version": 1
  },
  "userdoc": {
    "kind": "user",
    "methods": {},
    "version": 1
  }
}