{
  "contractName": "VerifyVDF",
  "abi": [
    {
      "inputs": [],
      "stateMutability": "nonpayable",
      "type": "constructor"
    },
    {
      "inputs": [
        {
          "internalType": "bytes",
          "name": "g",
          "type": "bytes"
        },
        {
          "internalType": "bytes",
          "name": "pi",
          "type": "bytes"
        },
        {
          "internalType": "bytes",
          "name": "y",
          "type": "bytes"
        },
        {
          "internalType": "bytes",
          "name": "q",
          "type": "bytes"
        },
        {
          "internalType": "bytes",
          "name": "dst",
          "type": "bytes"
        },
        {
          "internalType": "uint256",
          "name": "nonce",
          "type": "uint256"
        },
        {
          "internalType": "uint256",
          "name": "delay",
          "type": "uint256"
        }
      ],
      "name": "verify",
      "outputs": [
        {
          "internalType": "bool",
          "name": "",
          "type": "bool"
        }
      ],
      "stateMutability": "view",
      "type": "function"
    }
  ],
  "bytecode": "0x60806040526040518061012001604052806101008152602001620014dc610100913960009080519060200190620000389291906200004d565b503480156200004657600080fd5b50620000f3565b828054600181600116156101000203166002900490600052602060002090601f016020900481019282601f106200009057805160ff1916838001178555620000c1565b82800160010185558215620000c1579182015b82811115620000c0578251825591602001919060010190620000a3565b5b509050620000d09190620000d4565b5090565b5b80821115620000ef576000816000905550600101620000d5565b5090565b6113d980620001036000396000f3fe608060405234801561001057600080fd5b506004361061002b5760003560e01c806341db80dc14610030575b600080fd5b610359600480360360e081101561004657600080fd5b810190808035906020019064010000000081111561006357600080fd5b82018360208201111561007557600080fd5b8035906020019184600183028401116401000000008311171561009757600080fd5b91908080601f016020809104026020016040519081016040528093929190818152602001838380828437600081840152601f19601f820116905080830192505050505050509192919290803590602001906401000000008111156100fa57600080fd5b82018360208201111561010c57600080fd5b8035906020019184600183028401116401000000008311171561012e57600080fd5b91908080601f016020809104026020016040519081016040528093929190818152602001838380828437600081840152601f19601f8201169050808301925050505050505091929192908035906020019064010000000081111561019157600080fd5b8201836020820111156101a357600080fd5b803590602001918460018302840111640100000000831117156101c557600080fd5b91908080601f016020809104026020016040519081016040528093929190818152602001838380828437600081840152601f19601f8201169050808301925050505050505091929192908035906020019064010000000081111561022857600080fd5b82018360208201111561023a57600080fd5b8035906020019184600183028401116401000000008311171561025c57600080fd5b91908080601f016020809104026020016040519081016040528093929190818152602001838380828437600081840152601f19601f820116905080830192505050505050509192919290803590602001906401000000008111156102bf57600080fd5b8201836020820111156102d157600080fd5b803590602001918460018302840111640100000000831117156102f357600080fd5b91908080601f016020809104026020016040519081016040528093929190818152602001838380828437600081840152601f19601f8201169050808301925050505050505091929192908035906020019092919080359060200190929190505050610371565b60405180821515815260200191505060405180910390f35b600061037c836108a9565b6103ee576040517f08c379a000000000000000000000000000000000000000000000000000000000815260040180806020018281038252600d8152602001807f696e76616c6964206e6f6e63650000000000000000000000000000000000000081525060200191505060405180910390fd5b6103f7886108b8565b610469576040517f08c379a00000000000000000000000000000000000000000000000000000000081526004018080602001828103825260188152602001807f696e76616c69642067726f757020656c656d656e743a2067000000000000000081525060200191505060405180910390fd5b61047288610b56565b156104e5576040517f08c379a00000000000000000000000000000000000000000000000000000000081526004018080602001828103825260158152602001807f7a65726f2067726f757020656c656d656e743a2067000000000000000000000081525060200191505060405180910390fd5b6104ee876108b8565b610560576040517f08c379a00000000000000000000000000000000000000000000000000000000081526004018080602001828103825260198152602001807f696e76616c69642067726f757020656c656d656e743a2070690000000000000081525060200191505060405180910390fd5b61056987610b56565b156105dc576040517f08c379a00000000000000000000000000000000000000000000000000000000081526004018080602001828103825260168152602001807f7a65726f2067726f757020656c656d656e743a2070690000000000000000000081525060200191505060405180910390fd5b6105e5866108b8565b610657576040517f08c379a00000000000000000000000000000000000000000000000000000000081526004018080602001828103825260188152602001807f696e76616c69642067726f757020656c656d656e743a2079000000000000000081525060200191505060405180910390fd5b61066086610b56565b156106d3576040517f08c379a00000000000000000000000000000000000000000000000000000000081526004018080602001828103825260158152602001807f7a65726f2067726f757020656c656d656e743a2079000000000000000000000081525060200191505060405180910390fd5b6106dc856108b8565b61074e576040517f08c379a000000000000000000000000000000000000000000000000000000000815260040180806020018281038252601f8152602001807f696e76616c69642067726f757020656c656d656e743a2068656c70657220710081525060200191505060405180910390fd5b600061075c89888688610b99565b90506000600182161415610771576001810190505b61077a81610cc8565b6107ec576040517f08c379a00000000000000000000000000000000000000000000000000000000081526004018080602001828103825260138152602001807f6e6f6e207072696d65206368616c6c656e67650000000000000000000000000081525060200191505060405180910390fd5b60006107fa60028584610e0e565b905060606108088a84610e65565b905060606108168c84610e65565b905061082482828c8c61104a565b610896576040517f08c379a00000000000000000000000000000000000000000000000000000000081526004018080602001828103825260138152602001807f766572696669636174696f6e206661696c65640000000000000000000000000081525060200191505060405180910390fd5b6001945050505050979650505050505050565b60006201000082109050919050565b60006101008251146108cd5760009050610b51565b6001905060208201517fc7970ceedcc3b0754490201a7aa613cd73911081c790f5f1a8726f463550bb5b811091507fc7970ceedcc3b0754490201a7aa613cd73911081c790f5f1a8726f463550bb5b811415610b4f57604083015190507f7ff0db8e1ea1189ec72f93d1650011bd721aeeacc2acde32a04107f0648c2813811091507f7ff0db8e1ea1189ec72f93d1650011bd721aeeacc2acde32a04107f0648c2813811415610b4e57606083015190507fa31f5b0b7765ff8b44b4b6ffc93384b646eb09c7cf5e8592d40ea33c80039f35811091507fa31f5b0b7765ff8b44b4b6ffc93384b646eb09c7cf5e8592d40ea33c80039f35811415610b4d57608083015190507fb4f14a04b51f7bfd781be4d1673164ba8eb991c2c4d730bbbe35f592bdef524a811091507fb4f14a04b51f7bfd781be4d1673164ba8eb991c2c4d730bbbe35f592bdef524a811415610b4c5760a083015190507ff7e8daefd26c66fc02c479af89d64d373f442709439de66ceb955f3ea37d5159811091507ff7e8daefd26c66fc02c479af89d64d373f442709439de66ceb955f3ea37d5159811415610b4b5760c083015190507ff6135809f85334b5cb1813addc80cd05609f10ac6a95ad65872c909525bdad32811091507ff6135809f85334b5cb1813addc80cd05609f10ac6a95ad65872c909525bdad32811415610b4a5760e083015190507fbc729592642920f24c61dc5b3c3b7923e56b16a4d9d373d8721f24a3fc0f1b31811091507fbc729592642920f24c61dc5b3c3b7923e56b16a4d9d373d8721f24a3fc0f1b31811415610b495761010083015190507f31f55615172866bccc30f95054c824e733a5eb6817f7bc16399d48c6361cc7e5811091505b5b5b5b5b5b5b505b919050565b6000610100825114610b6b5760009050610b94565b6001905060205b610101811015610b92576000818401511482169150602081019050610b72565b505b919050565b6000818585856040516020018085805190602001908083835b60208310610bd55780518252602082019150602081019050602083039250610bb2565b6001836020036101000a03801982511681845116808217855250505050505090500184805190602001908083835b60208310610c265780518252602082019150602081019050602083039250610c03565b6001836020036101000a03801982511681845116808217855250505050505090500183805190602001908083835b60208310610c775780518252602082019150602081019050602083039250610c54565b6001836020036101000a0380198251168184511680821785525050505050509050018281526020019450505050506040516020818303038152906040528051906020012060001c9050949350505050565b60006004821015610cdc5760009050610e09565b6000600183161415610cf15760009050610e09565b600060018303905060005b6000600183161415610d205760028281610d1257fe5b049150600181019050610cfc565b60005b600f811015610e01576000600260038703878460405160200180838152602001828152602001925050506040516020818303038152906040528051906020012060001c81610d6d57fe5b060190506000610d7e828689610e0e565b90506001811480610d9157506001870381145b15610d9d575050610df4565b600080600190505b85811015610ddb578880610db557fe5b838409925060018903831415610dce5760019150610ddb565b8080600101915050610da5565b5080610df05760009650505050505050610e09565b5050505b8080600101915050610d23565b506001925050505b919050565b600060405160208152602080820152602060408201528460608201528360808201528260a082015260208160c08360056107d05a03fa8060008114610e5257610e57565b600080fd5b508151925050509392505050565b6060604051610100815260208082015261010060408201526020840151606082015260408401516080820152606084015160a0820152608084015160c082015260a084015160e082015260c084015161010082015260e0840151610120820152610100840151610140820152826101608201527fc7970ceedcc3b0754490201a7aa613cd73911081c790f5f1a8726f463550bb5b6101808201527f7ff0db8e1ea1189ec72f93d1650011bd721aeeacc2acde32a04107f0648c28136101a08201527fa31f5b0b7765ff8b44b4b6ffc93384b646eb09c7cf5e8592d40ea33c80039f356101c08201527fb4f14a04b51f7bfd781be4d1673164ba8eb991c2c4d730bbbe35f592bdef524a6101e08201527ff7e8daefd26c66fc02c479af89d64d373f442709439de66ceb955f3ea37d51596102008201527ff6135809f85334b5cb1813addc80cd05609f10ac6a95ad65872c909525bdad326102208201527fbc729592642920f24c61dc5b3c3b7923e56b16a4d9d373d8721f24a3fc0f1b316102408201527f31f55615172866bccc30f95054c824e733a5eb6817f7bc16399d48c6361cc7e5610260820152610100602082016102808360056107d05a03fa806000811461103157611036565b600080fd5b506101208201604052819250505092915050565b600060606110588686611122565b905060606111008460008054600181600116156101000203166002900480601f0160208091040260200160405190810160405280929190818152602001828054600181600116156101000203166002900480156110f65780601f106110cb576101008083540402835291602001916110f6565b820191906000526020600020905b8154815290600101906020018083116110d957829003601f168201915b5050505050611122565b905061110c8186611284565b611116828261131f565b92505050949350505050565b60606040516102008152610240810160405260001960008060008060006101008a01519050610100890151945085858209915084810294508482108583030393508461020088015260e05b60008111156111b057808a01519550868683099250858202955085831086840303935084860195508486108401945085610100820189015260208103905061116d565b508387610100015260e05b600081111561126d578460208983010152808b015191506101008a0151955086868309925085820295508583108684030394506101008101880192508251935083860195508386108501945085835260e05b600081111561126157808b015196508787840993508683029650868410878503039450858701965085871085019450818101890193508351955085870196508587108501955086845260208103905061120d565b506020810390506111bb565b508387602001528697505050505050505092915050565b610220820161012082016000825182518082019150808210925081855260205b6101018110156112e6576020860395506020850394508551925084519150838301925083831093508183019250818310840193508286526020810190506112a4565b5060005b60208110156113155760208603955085519250838301925083831093508286526020810190506112ea565b5050505050505050565b60008083519050600081141561133957600091505061139d565b60006020828161134557fe5b061461135557600091505061139d565b8251811461136757600091505061139d565b60006001925060205b600183018110156113995760018201915080850151818701511484169350602081019050611370565b5050505b9291505056fea26469706673582212206e066c5cce87bbd943a0d2c9c3e606da33fe6dc865ed9323a1091cad18f45a8d64736f6c63430007030033c7970ceedcc3b0754490201a7aa613cd73911081c790f5f1a8726f463550bb5b7ff0db8e1ea1189ec72f93d1650011bd721aeeacc2acde32a04107f0648c2813a31f5b0b7765ff8b44b4b6ffc93384b646eb09c7cf5e8592d40ea33c80039f35b4f14a04b51f7bfd781be4d1673164ba8eb991c2c4d730bbbe35f592bdef524af7e8daefd26c66fc02c479af89d64d373f442709439de66ceb955f3ea37d5159f6135809f85334b5cb1813addc80cd05609f10ac6a95ad65872c909525bdad32bc729592642920f24c61dc5b3c3b7923e56b16a4d9d373d8721f24a3fc0f1b3131f55615172866bccc30f95054c824e733a5eb6817f7bc16399d48c6361cc7e5",
  "immutableReferences": {},
  "source": "//SPDX-License-Identifier: Apache-2.0\npragma solidity >=0.7.0;\n\ncontract VerifyVDF {\n  uint256 constant RSA_MODULUS_0 = 0x31f55615172866bccc30f95054c824e733a5eb6817f7bc16399d48c6361cc7e5;\n  uint256 constant RSA_MODULUS_1 = 0xbc729592642920f24c61dc5b3c3b7923e56b16a4d9d373d8721f24a3fc0f1b31;\n  uint256 constant RSA_MODULUS_2 = 0xf6135809f85334b5cb1813addc80cd05609f10ac6a95ad65872c909525bdad32;\n  uint256 constant RSA_MODULUS_3 = 0xf7e8daefd26c66fc02c479af89d64d373f442709439de66ceb955f3ea37d5159;\n  uint256 constant RSA_MODULUS_4 = 0xb4f14a04b51f7bfd781be4d1673164ba8eb991c2c4d730bbbe35f592bdef524a;\n  uint256 constant RSA_MODULUS_5 = 0xa31f5b0b7765ff8b44b4b6ffc93384b646eb09c7cf5e8592d40ea33c80039f35;\n  uint256 constant RSA_MODULUS_6 = 0x7ff0db8e1ea1189ec72f93d1650011bd721aeeacc2acde32a04107f0648c2813;\n  uint256 constant RSA_MODULUS_7 = 0xc7970ceedcc3b0754490201a7aa613cd73911081c790f5f1a8726f463550bb5b;\n  bytes RSA_MODULUS =\n    hex\"c7970ceedcc3b0754490201a7aa613cd73911081c790f5f1a8726f463550bb5b7ff0db8e1ea1189ec72f93d1650011bd721aeeacc2acde32a04107f0648c2813a31f5b0b7765ff8b44b4b6ffc93384b646eb09c7cf5e8592d40ea33c80039f35b4f14a04b51f7bfd781be4d1673164ba8eb991c2c4d730bbbe35f592bdef524af7e8daefd26c66fc02c479af89d64d373f442709439de66ceb955f3ea37d5159f6135809f85334b5cb1813addc80cd05609f10ac6a95ad65872c909525bdad32bc729592642920f24c61dc5b3c3b7923e56b16a4d9d373d8721f24a3fc0f1b3131f55615172866bccc30f95054c824e733a5eb6817f7bc16399d48c6361cc7e5\";\n\n  uint256 constant MILLER_RABIN_ROUNDS = 15;\n  uint256 constant MAX_NONCE = 65536;\n\n  constructor() {}\n\n  function verify(\n    bytes memory g,\n    bytes memory pi,\n    bytes memory y,\n    bytes memory q,\n    bytes memory dst,\n    uint256 nonce,\n    uint256 delay\n  ) public view returns (bool) {\n    require(validateNonce(nonce), \"invalid nonce\");\n    require(validateGroupElement(g), \"invalid group element: g\");\n    require(!isZeroGroupElement(g), \"zero group element: g\");\n    require(validateGroupElement(pi), \"invalid group element: pi\");\n    require(!isZeroGroupElement(pi), \"zero group element: pi\");\n    require(validateGroupElement(y), \"invalid group element: y\");\n    require(!isZeroGroupElement(y), \"zero group element: y\");\n    require(validateGroupElement(q), \"invalid group element: helper q\");\n\n    uint256 l = hashToPrime(g, y, nonce, dst);\n    if (l & 1 == 0) {\n      l += 1;\n    }\n    require(millerRabinPrimalityTest(l), \"non prime challenge\");\n\n    uint256 r = modexp(2, delay, l);\n    bytes memory u1 = modexp(pi, l);\n    bytes memory u2 = modexp(g, r);\n\n    require(mulModEqual(u1, u2, y, q), \"verification failed\");\n    return true;\n  }\n\n  function hashToPrime(\n    bytes memory g,\n    bytes memory y,\n    uint256 nonce,\n    bytes memory dst\n  ) internal pure returns (uint256) {\n    return uint256(keccak256(abi.encodePacked(dst, g, y, nonce)));\n  }\n\n  function hash_x2(\n    bytes memory g,\n    bytes memory pk\n  ) internal pure returns (uint256) {\n    return uint256(keccak256(abi.encodePacked(g, pk)));\n  }\n\n  function hashToPrime_os(\n    bytes memory x1,\n    bytes memory x2,\n    bytes memory y1,\n    bytes memory y2,\n    uint256 nonce,\n    bytes memory pk\n  ) internal pure returns (uint256) {\n    return uint256(keccak256(abi.encodePacked(x1,y1,x2,y2, nonce, pk)));\n  }\n\n  // a * b =? N*q + y\n  function mulModEqual(\n    bytes memory a,\n    bytes memory b,\n    bytes memory y,\n    bytes memory q\n  ) internal view returns (bool) {\n    bytes memory u1 = mul2048(a, b);\n    bytes memory u2 = mul2048(q, RSA_MODULUS);\n    add2048to4096(u2, y);\n    return equalNumber(u1, u2);\n  }\n\n  function equalNumber(bytes memory a, bytes memory b) internal pure returns (bool res) {\n    uint256 len = a.length;\n    if (len == 0) {\n      return false;\n    }\n    if (len % 32 != 0) {\n      return false;\n    }\n    if (len != b.length) {\n      return false;\n    }\n    uint256 i = 0;\n    res = true;\n    assembly {\n      for {\n        let ptr := 32\n      } lt(ptr, add(len, 1)) {\n        ptr := add(ptr, 32)\n      } {\n        i := add(i, 1)\n        res := and(res, eq(mload(add(a, ptr)), mload(add(b, ptr))))\n      }\n    }\n  }\n\n  function millerRabinPrimalityTest(uint256 n) internal view returns (bool) {\n    // miller rabin primality tests code is\n    // borrowed from https://github.com/dankrad/rsa-bounty/blob/master/contract/rsa_bounty.sol\n\n    if (n < 4) {\n      return false;\n    }\n    if (n & 1 == 0) {\n      return false;\n    }\n    uint256 d = n - 1;\n    uint256 r = 0;\n    while (d & 1 == 0) {\n      d /= 2;\n      r += 1;\n    }\n    for (uint256 i = 0; i < MILLER_RABIN_ROUNDS; i++) {\n      // pick a random integer a in the range [2, n − 2]\n      uint256 a = (uint256(keccak256(abi.encodePacked(n, i))) % (n - 3)) + 2;\n      uint256 x = modexp(a, d, n);\n      if (x == 1 || x == n - 1) {\n        continue;\n      }\n      bool check_passed = false;\n      for (uint256 j = 1; j < r; j++) {\n        x = mulmod(x, x, n);\n        if (x == n - 1) {\n          check_passed = true;\n          break;\n        }\n      }\n      if (!check_passed) {\n        return false;\n      }\n    }\n    return true;\n  }\n\n  function modexp(\n    uint256 base,\n    uint256 exponent,\n    uint256 modulus\n  ) internal view returns (uint256 res) {\n    assembly {\n      let mem := mload(0x40)\n\n      mstore(mem, 0x20)\n      mstore(add(mem, 0x20), 0x20)\n      mstore(add(mem, 0x40), 0x20)\n      mstore(add(mem, 0x60), base)\n      mstore(add(mem, 0x80), exponent)\n      mstore(add(mem, 0xa0), modulus)\n\n      let success := staticcall(sub(gas(), 2000), 5, mem, 0xc0, mem, 32)\n      switch success\n        case 0 {\n          revert(0x0, 0x0)\n        }\n      res := mload(mem)\n    }\n  }\n\n  function modexp(bytes memory base, uint256 exponent) internal view returns (bytes memory res) {\n    // bytes memory res // = new bytes(256);\n    assembly {\n      let mem := mload(0x40)\n\n      mstore(mem, 256) // <length_of_BASE> = 256\n      mstore(add(mem, 0x20), 0x20) // <length_of_EXPONENT> = 32\n      mstore(add(mem, 0x40), 256) // <length_of_MODULUS> = 256\n\n      mstore(add(mem, 0x60), mload(add(base, 0x20)))\n      mstore(add(mem, 0x80), mload(add(base, 0x40)))\n      mstore(add(mem, 0xa0), mload(add(base, 0x60)))\n      mstore(add(mem, 0xc0), mload(add(base, 0x80)))\n      mstore(add(mem, 0xe0), mload(add(base, 0xa0)))\n      mstore(add(mem, 0x100), mload(add(base, 0xc0)))\n      mstore(add(mem, 0x120), mload(add(base, 0xe0)))\n      mstore(add(mem, 0x140), mload(add(base, 0x100)))\n\n      mstore(add(mem, 0x160), exponent)\n\n      mstore(add(mem, 0x180), RSA_MODULUS_7)\n      mstore(add(mem, 0x1a0), RSA_MODULUS_6)\n      mstore(add(mem, 0x1c0), RSA_MODULUS_5)\n      mstore(add(mem, 0x1e0), RSA_MODULUS_4)\n      mstore(add(mem, 0x200), RSA_MODULUS_3)\n      mstore(add(mem, 0x220), RSA_MODULUS_2)\n      mstore(add(mem, 0x240), RSA_MODULUS_1)\n      mstore(add(mem, 0x260), RSA_MODULUS_0)\n\n      let success := staticcall(sub(gas(), 2000), 5, mem, 0x280, add(mem, 0x20), 256)\n      switch success\n        case 0 {\n          revert(0x0, 0x0)\n        }\n      // update free mem pointer\n      mstore(0x40, add(mem, 0x120))\n      res := mem\n    }\n  }\n\n  function mul2048(bytes memory a, bytes memory b) internal pure returns (bytes memory res) {\n    assembly {\n      let mem := mload(64)\n      mstore(mem, 512)\n      mstore(64, add(mem, 576))\n\n      let r := not(0)\n      let u1\n      let u2\n      let u3\n      let mm\n      let ai\n\n      // a0 * bj\n      {\n        ai := mload(add(a, 256)) // a0\n        u1 := mload(add(b, 256)) // b0\n\n        // a0 * b0\n        mm := mulmod(ai, u1, r)\n        u1 := mul(ai, u1) // La0b0\n        u2 := sub(sub(mm, u1), lt(mm, u1)) // Ha0b0\n\n        // store z0 = La0b0\n        mstore(add(mem, 512), u1)\n        // u1, u3 free, u2: Ha0b0\n\n        for {\n          let ptr := 224\n        } gt(ptr, 0) {\n          ptr := sub(ptr, 32)\n        } {\n          // a0 * bj\n          u1 := mload(add(b, ptr))\n          {\n            mm := mulmod(ai, u1, r)\n            u1 := mul(ai, u1) // La0bj\n            u3 := sub(sub(mm, u1), lt(mm, u1)) // Ha0bj\n          }\n\n          u1 := add(u1, u2) // zi = La0bj + Ha0b_(j-1)\n          u2 := add(u3, lt(u1, u2)) // Ha0bj = Ha0bj + c\n          mstore(add(mem, add(ptr, 256)), u1) // store zi\n          // carry u2 to next iter\n        }\n      }\n\n      mstore(add(256, mem), u2) // store z_(i+8)\n\n      // ai\n      // i from 1 to 7\n      for {\n        let optr := 224\n      } gt(optr, 0) {\n        optr := sub(optr, 32)\n      } {\n        mstore(add(add(optr, mem), 32), u2) // store z_(i+8)\n        ai := mload(add(a, optr)) // ai\n        u1 := mload(add(b, 256)) // b0\n        {\n          // ai * b0\n          mm := mulmod(ai, u1, r)\n          u1 := mul(ai, u1) // La1b0\n          u2 := sub(sub(mm, u1), lt(mm, u1)) // Haib0\n        }\n\n        mm := add(mem, add(optr, 256))\n        u3 := mload(mm) // load zi\n        u1 := add(u1, u3) // zi = zi + Laib0\n        u2 := add(u2, lt(u1, u3)) // Haib0' = Haib0 + c\n        mstore(mm, u1) // store zi\n        // u1, u3 free, u2: Haib0\n\n        // bj, j from 1 to 7\n        for {\n          let iptr := 224\n        } gt(iptr, 0) {\n          iptr := sub(iptr, 32)\n        } {\n          u1 := mload(add(b, iptr)) // bj\n          {\n            // ai * bj\n            mm := mulmod(ai, u1, r)\n            u1 := mul(ai, u1) // Laibj\n            u3 := sub(sub(mm, u1), lt(mm, u1)) // Haibj\n          }\n          u1 := add(u1, u2) // Laibj + Haib0\n          u3 := add(u3, lt(u1, u2)) // Haibj' = Haibj + c\n          mm := add(mem, add(iptr, optr))\n          u2 := mload(mm) // zi\n          u1 := add(u1, u2) // zi = zi + (Laibj + Haib0)\n          u2 := add(u3, lt(u1, u2)) // Haibj' = Ha1bj + c\n          mstore(mm, u1) // store zi\n          // carry u2 to next iter\n        }\n      }\n      mstore(add(32, mem), u2) // store z15\n      res := mem\n    }\n  }\n\n  function add2048to4096(bytes memory a, bytes memory b) internal pure {\n    assembly {\n      let a_ptr := add(a, 0x220)\n      let b_ptr := add(b, 0x120)\n      let c\n\n      let ai := mload(a_ptr)\n      let bi := mload(b_ptr)\n      ai := add(ai, bi)\n      c := lt(ai, bi)\n      mstore(a_ptr, ai)\n\n      for {\n        let off := 0x20\n      } lt(off, 0x101) {\n        off := add(off, 0x20)\n      } {\n        a_ptr := sub(a_ptr, 0x20)\n        b_ptr := sub(b_ptr, 0x20)\n        ai := mload(a_ptr)\n        bi := mload(b_ptr)\n\n        ai := add(ai, c)\n        c := lt(ai, c)\n        ai := add(ai, bi)\n        c := add(c, lt(ai, bi))\n        mstore(a_ptr, ai)\n      }\n\n      for {\n        let off := 0x0\n      } lt(off, 0x20) {\n        off := add(off, 0x20)\n      } {\n        a_ptr := sub(a_ptr, 0x20)\n        ai := mload(a_ptr)\n        ai := add(ai, c)\n        c := lt(ai, c)\n        mstore(a_ptr, ai)\n      }\n    }\n  }\n\n  function validateGroupElement(bytes memory e) internal pure returns (bool valid) {\n    if (e.length != 256) {\n      return false;\n    }\n    valid = true;\n    assembly {\n      let ei := mload(add(e, 0x20))\n      valid := lt(ei, RSA_MODULUS_7)\n      if eq(ei, RSA_MODULUS_7) {\n        ei := mload(add(e, 0x40))\n        valid := lt(ei, RSA_MODULUS_6)\n        if eq(ei, RSA_MODULUS_6) {\n          ei := mload(add(e, 0x60))\n          valid := lt(ei, RSA_MODULUS_5)\n          if eq(ei, RSA_MODULUS_5) {\n            ei := mload(add(e, 0x80))\n            valid := lt(ei, RSA_MODULUS_4)\n            if eq(ei, RSA_MODULUS_4) {\n              ei := mload(add(e, 0xa0))\n              valid := lt(ei, RSA_MODULUS_3)\n              if eq(ei, RSA_MODULUS_3) {\n                ei := mload(add(e, 0xc0))\n                valid := lt(ei, RSA_MODULUS_2)\n                if eq(ei, RSA_MODULUS_2) {\n                  ei := mload(add(e, 0xe0))\n                  valid := lt(ei, RSA_MODULUS_1)\n                  if eq(ei, RSA_MODULUS_1) {\n                    ei := mload(add(e, 0x100))\n                    valid := lt(ei, RSA_MODULUS_0)\n                  }\n                }\n              }\n            }\n          }\n        }\n      }\n    }\n  }\n\n  function isZeroGroupElement(bytes memory e) internal pure returns (bool isZero) {\n    if (e.length != 256) {\n      return false;\n    }\n    isZero = true;\n    assembly {\n      for {\n        let off := 0x20\n      } lt(off, 0x101) {\n        off := add(off, 0x20)\n      } {\n        isZero := and(isZero, eq(mload(add(e, off)), 0))\n      }\n    }\n  }\n\n  function validateNonce(uint256 nonce) internal pure returns (bool) {\n    return nonce < MAX_NONCE;\n  }\n}\n",
  "sourcePath": "/run/media/haxolotl/Backup/GitRoot/VDF/deploy-test/contracts/VerifyVDF.sol",
  "compiler": {
    "name": "solc",
    "version": "0.7.3+commit.9bfce1f6.Emscripten.clang"
  },
  "schemaVersion": "3.4.0",
  "updatedAt": "2021-05-07T00:22:22.016Z",
  "devdoc": {
    "kind": "dev",
    "methods": {},
    "version": 1
  },
  "userdoc": {
    "kind": "user",
    "methods": {},
    "version": 1
  }
}